{
  "abi": [
    {
      "inputs": [],
      "name": "VaultAlreadyDeployed",
      "type": "error"
    },
    {
      "inputs": [],
      "name": "VaultDoesNotExist",
      "type": "error"
    },
    {
      "anonymous": false,
      "inputs": [
        {
          "indexed": false,
          "internalType": "string",
          "name": "name",
          "type": "string"
        },
        {
          "indexed": false,
          "internalType": "string",
          "name": "symbol",
          "type": "string"
        },
        {
          "indexed": false,
          "internalType": "contract INftVault",
          "name": "vault",
          "type": "address"
        },
        {
          "indexed": false,
          "internalType": "uint256",
          "name": "vaultId",
          "type": "uint256"
        },
        {
          "components": [
            {
              "internalType": "address",
              "name": "addr",
              "type": "address"
            },
            {
              "internalType": "enum INftVault.NftType",
              "name": "nftType",
              "type": "uint8"
            },
            {
              "internalType": "bool",
              "name": "allowAllIds",
              "type": "bool"
            },
            {
              "internalType": "uint256[]",
              "name": "tokenIds",
              "type": "uint256[]"
            }
          ],
          "indexed": false,
          "internalType": "struct INftVault.CollectionData[]",
          "name": "collections",
          "type": "tuple[]"
        },
        {
          "indexed": false,
          "internalType": "address",
          "name": "creator",
          "type": "address"
        },
        {
          "indexed": false,
          "internalType": "address",
          "name": "owner",
          "type": "address"
        }
      ],
      "name": "VaultCreated",
      "type": "event"
    },
    {
      "inputs": [
        {
          "components": [
            {
              "internalType": "address",
              "name": "addr",
              "type": "address"
            },
            {
              "internalType": "enum INftVault.NftType",
              "name": "nftType",
              "type": "uint8"
            },
            {
              "internalType": "bool",
              "name": "allowAllIds",
              "type": "bool"
            },
            {
              "internalType": "uint256[]",
              "name": "tokenIds",
              "type": "uint256[]"
            }
          ],
          "internalType": "struct INftVault.CollectionData[]",
          "name": "_collections",
          "type": "tuple[]"
        },
        {
          "internalType": "address",
          "name": "_owner",
          "type": "address"
        },
        {
          "internalType": "bool",
          "name": "_isSoulbound",
          "type": "bool"
        }
      ],
      "name": "createVault",
      "outputs": [
        {
          "internalType": "contract INftVault",
          "name": "vault",
          "type": "address"
        }
      ],
      "stateMutability": "nonpayable",
      "type": "function"
    },
    {
      "inputs": [
        {
          "components": [
            {
              "internalType": "address",
              "name": "addr",
              "type": "address"
            },
            {
              "internalType": "enum INftVault.NftType",
              "name": "nftType",
              "type": "uint8"
            },
            {
              "internalType": "bool",
              "name": "allowAllIds",
              "type": "bool"
            },
            {
              "internalType": "uint256[]",
              "name": "tokenIds",
              "type": "uint256[]"
            }
          ],
          "internalType": "struct INftVault.CollectionData[]",
          "name": "_collections",
          "type": "tuple[]"
        }
      ],
      "name": "exists",
      "outputs": [
        {
          "internalType": "bool",
          "name": "",
          "type": "bool"
        }
      ],
      "stateMutability": "view",
      "type": "function"
    },
    {
      "inputs": [],
      "name": "getAllPermissionedVaults",
      "outputs": [
        {
          "internalType": "address[]",
          "name": "",
          "type": "address[]"
        }
      ],
      "stateMutability": "view",
      "type": "function"
    },
    {
      "inputs": [],
      "name": "getAllVaults",
      "outputs": [
        {
          "internalType": "address[]",
          "name": "",
          "type": "address[]"
        }
      ],
      "stateMutability": "view",
      "type": "function"
    },
    {
      "inputs": [
        {
          "internalType": "uint256",
          "name": "_i",
          "type": "uint256"
        }
      ],
      "name": "getPermissionedVaultAt",
      "outputs": [
        {
          "internalType": "address",
          "name": "",
          "type": "address"
        }
      ],
      "stateMutability": "view",
      "type": "function"
    },
    {
      "inputs": [],
      "name": "getPermissionedVaultLength",
      "outputs": [
        {
          "internalType": "uint256",
          "name": "",
          "type": "uint256"
        }
      ],
      "stateMutability": "view",
      "type": "function"
    },
    {
      "inputs": [
        {
          "components": [
            {
              "internalType": "address",
              "name": "addr",
              "type": "address"
            },
            {
              "internalType": "enum INftVault.NftType",
              "name": "nftType",
              "type": "uint8"
            },
            {
              "internalType": "bool",
              "name": "allowAllIds",
              "type": "bool"
            },
            {
              "internalType": "uint256[]",
              "name": "tokenIds",
              "type": "uint256[]"
            }
          ],
          "internalType": "struct INftVault.CollectionData[]",
          "name": "_collections",
          "type": "tuple[]"
        }
      ],
      "name": "getVault",
      "outputs": [
        {
          "internalType": "contract INftVault",
          "name": "vault",
          "type": "address"
        }
      ],
      "stateMutability": "view",
      "type": "function"
    },
    {
      "inputs": [
        {
          "internalType": "uint256",
          "name": "_i",
          "type": "uint256"
        }
      ],
      "name": "getVaultAt",
      "outputs": [
        {
          "internalType": "address",
          "name": "",
          "type": "address"
        }
      ],
      "stateMutability": "view",
      "type": "function"
    },
    {
      "inputs": [],
      "name": "getVaultLength",
      "outputs": [
        {
          "internalType": "uint256",
          "name": "",
          "type": "uint256"
        }
      ],
      "stateMutability": "view",
      "type": "function"
    },
    {
      "inputs": [
        {
          "components": [
            {
              "internalType": "address",
              "name": "addr",
              "type": "address"
            },
            {
              "internalType": "enum INftVault.NftType",
              "name": "nftType",
              "type": "uint8"
            },
            {
              "internalType": "bool",
              "name": "allowAllIds",
              "type": "bool"
            },
            {
              "internalType": "uint256[]",
              "name": "tokenIds",
              "type": "uint256[]"
            }
          ],
          "internalType": "struct INftVault.CollectionData[]",
          "name": "_collections",
          "type": "tuple[]"
        }
      ],
      "name": "hashVault",
      "outputs": [
        {
          "internalType": "bytes32",
          "name": "",
          "type": "bytes32"
        }
      ],
      "stateMutability": "pure",
      "type": "function"
    },
    {
      "inputs": [
        {
          "internalType": "address",
          "name": "_vault",
          "type": "address"
        }
      ],
      "name": "isPermissionedVault",
      "outputs": [
        {
          "internalType": "bool",
          "name": "",
          "type": "bool"
        }
      ],
      "stateMutability": "view",
      "type": "function"
    },
    {
      "inputs": [
        {
          "internalType": "address",
          "name": "_vault",
          "type": "address"
        }
      ],
      "name": "isVault",
      "outputs": [
        {
          "internalType": "bool",
          "name": "",
          "type": "bool"
        }
      ],
      "stateMutability": "view",
      "type": "function"
    },
    {
      "inputs": [
        {
          "internalType": "bytes32",
          "name": "",
          "type": "bytes32"
        }
      ],
      "name": "vaultHashMap",
      "outputs": [
        {
          "internalType": "contract INftVault",
          "name": "",
          "type": "address"
        }
      ],
      "stateMutability": "view",
      "type": "function"
    },
    {
      "inputs": [
        {
          "internalType": "contract INftVault",
          "name": "",
          "type": "address"
        }
      ],
      "name": "vaultIdMap",
      "outputs": [
        {
          "internalType": "uint256",
          "name": "",
          "type": "uint256"
        }
      ],
      "stateMutability": "view",
      "type": "function"
    }
  ],
  "bytecode": {
    "object": "0x608060405234801561001057600080fd5b50614143806100206000396000f3fe60806040523480156200001157600080fd5b5060043610620000fd5760003560e01c806397331bf91162000097578063d126fc19116200006e578063d126fc191462000222578063f39645511462000245578063f68790c7146200025c578063f853ca3d146200027357600080fd5b806397331bf914620001db5780639ac2468714620001f4578063cf25a9d3146200020b57600080fd5b806374449c6011620000d857806374449c60146200015e57806377f7154b14620001a35780637a98742d14620001ba578063812617c714620001d157600080fd5b80632c1067d814620001025780635c870c6d146200011f578063652b9b411462000147575b600080fd5b6200010c6200027d565b6040519081526020015b60405180910390f35b620001366200013036600462000940565b62000290565b604051901515815260200162000116565b620001366200015836600462000940565b620002a5565b6200018a6200016f36600462000960565b6004602052600090815260409020546001600160a01b031681565b6040516001600160a01b03909116815260200162000116565b6200018a620001b436600462000960565b620002b3565b6200018a620001cb36600462000960565b620002c2565b6200010c620002d0565b620001e5620002de565b6040516200011691906200097a565b6200010c6200020536600462000bee565b620002ec565b6200018a6200021c36600462000c2f565b6200031e565b6200010c6200023336600462000940565b60056020526000908152604090205481565b6200018a6200025636600462000bee565b620005cd565b620001366200026d36600462000bee565b6200061e565b620001e562000651565b60006200028b60026200065f565b905090565b60006200029f6002836200066a565b92915050565b60006200029f81836200066a565b60006200029f6002836200068f565b60006200029f81836200068f565b60006200028b60006200065f565b60606200028b60006200069d565b60008160405160200162000301919062000d61565b604051602081830303815290604052805190602001209050919050565b6000806001600160a01b03841615801562000337575082155b905060006200034686620002ec565b6000818152600460205260409020546001600160a01b03169350905082158015906200036f5750815b156200038e5760405163674c951b60e11b815260040160405180910390fd5b600060608084156200040a57620003a660006200065f565b9250620003b383620006ac565b604051602001620003c5919062000d9c565b6040516020818303038152906040529150620003e183620006ac565b604051602001620003f3919062000dd2565b604051602081830303815290604052905062000475565b6200041660026200065f565b92506200042383620006ac565b60405160200162000435919062000e06565b60405160208183030381529060405291506200045183620006ac565b60405160200162000463919062000e4d565b60405160208183030381529060405290505b81818989604051620004879062000919565b62000496949392919062000ebb565b604051809103906000f080158015620004b3573d6000803e3d6000fd5b50604051633e66176160e11b81529096506001600160a01b03871690637ccc2ec290620004e5908c9060040162000d61565b600060405180830381600087803b1580156200050057600080fd5b505af115801562000515573d6000803e3d6000fd5b5050505084156200056d576200052d60008762000746565b50600084815260046020908152604080832080546001600160a01b0319166001600160a01b038b169081179091558352600590915290208390556200057c565b6200057a60028762000746565b505b7f8577df691fa224ecbbbd43425157e43c5d77681b8d2a0fc543a9769ad3aeb1f6828288868d338e604051620005b9979695949392919062000f06565b60405180910390a150505050509392505050565b600060046000620005de84620002ec565b81526020810191909152604001600020546001600160a01b03169050806200061957604051634d827f1760e01b815260040160405180910390fd5b919050565b6000806004816200062f85620002ec565b81526020810191909152604001600020546001600160a01b0316141592915050565b60606200028b60026200069d565b60006200029f825490565b6001600160a01b038116600090815260018301602052604081205415155b9392505050565b60006200068883836200075d565b6060600062000688836200078a565b60606000620006bb83620007e8565b600101905060008167ffffffffffffffff811115620006de57620006de620009c9565b6040519080825280601f01601f19166020018201604052801562000709576020820181803683370190505b5090508181016020015b600019016f181899199a1a9b1b9c1cb0b131b232b360811b600a86061a8153600a85049450846200071357509392505050565b600062000688836001600160a01b038416620008c7565b600082600001828154811062000777576200077762000f7d565b9060005260206000200154905092915050565b606081600001805480602002602001604051908101604052809291908181526020018280548015620007dc57602002820191906000526020600020905b815481526020019060010190808311620007c7575b50505050509050919050565b60008072184f03e93ff9f4daa797ed6e38ed64bf6a1f0160401b8310620008285772184f03e93ff9f4daa797ed6e38ed64bf6a1f0160401b830492506040015b6d04ee2d6d415b85acef8100000000831062000855576d04ee2d6d415b85acef8100000000830492506020015b662386f26fc1000083106200087457662386f26fc10000830492506010015b6305f5e10083106200088d576305f5e100830492506008015b6127108310620008a257612710830492506004015b60648310620008b5576064830492506002015b600a83106200029f5760010192915050565b600081815260018301602052604081205462000910575081546001818101845560008481526020808220909301849055845484825282860190935260409020919091556200029f565b5060006200029f565b61317a8062000f9483390190565b6001600160a01b03811681146200093d57600080fd5b50565b6000602082840312156200095357600080fd5b8135620006888162000927565b6000602082840312156200097357600080fd5b5035919050565b6020808252825182820181905260009190848201906040850190845b81811015620009bd5783516001600160a01b03168352928401929184019160010162000996565b50909695505050505050565b634e487b7160e01b600052604160045260246000fd5b6040516080810167ffffffffffffffff8111828210171562000a055762000a05620009c9565b60405290565b604051601f8201601f1916810167ffffffffffffffff8111828210171562000a375762000a37620009c9565b604052919050565b600067ffffffffffffffff82111562000a5c5762000a5c620009c9565b5060051b60200190565b803580151581146200061957600080fd5b600082601f83011262000a8957600080fd5b8135602062000aa262000a9c8362000a3f565b62000a0b565b828152600592831b850182019282820191908785111562000ac257600080fd5b8387015b8581101562000be157803567ffffffffffffffff8082111562000ae95760008081fd5b908901906080828c03601f190181131562000b045760008081fd5b62000b0e620009df565b8884013562000b1d8162000927565b81526040848101356002811062000b345760008081fd5b828b0152606062000b4786820162000a66565b8383015292850135928484111562000b5f5760008081fd5b83860195508e603f87011262000b7757600094508485fd5b8a860135945062000b8c62000a9c8662000a3f565b85815294881b86018201948b810194508f86111562000bab5760008081fd5b958201955b8587101562000bcb5786358552958b0195938b019362000bb0565b9083015250875250505092840192840162000ac6565b5090979650505050505050565b60006020828403121562000c0157600080fd5b813567ffffffffffffffff81111562000c1957600080fd5b62000c278482850162000a77565b949350505050565b60008060006060848603121562000c4557600080fd5b833567ffffffffffffffff81111562000c5d57600080fd5b62000c6b8682870162000a77565b935050602084013562000c7e8162000927565b915062000c8e6040850162000a66565b90509250925092565b6000815180845260208085019450848260051b860182860160005b8581101562000be1578383038952815180516001600160a01b0316845285810151608090818601906002811062000cf957634e487b7160e01b600052602160045260246000fd5b86890152604083810151151590870152606092830151928601919091528151908190529086019060a08501906000905b8082101562000d4b578351835292880192918801916001919091019062000d29565b5050998601999350509084019060010162000cb2565b60208152600062000688602083018462000c97565b60005b8381101562000d9357818101518382015260200162000d79565b50506000910152565b6b026b0b3b4b1902b30bab63a160a51b81526000825162000dc581600c85016020870162000d76565b91909101600c0192915050565b69135859da58d5985d5b1d60b21b81526000825162000df981600a85016020870162000d76565b91909101600a0192915050565b7f4d61676963205065726d697373696f6e6564205661756c74200000000000000081526000825162000e4081601985016020870162000d76565b9190910160190192915050565b75135859da58d4195c9b5a5cdcda5bdb995915985d5b1d60521b81526000825162000e8081601685016020870162000d76565b9190910160160192915050565b6000815180845262000ea781602086016020860162000d76565b601f01601f19169290920160200192915050565b60808152600062000ed0608083018762000e8d565b828103602084015262000ee4818762000e8d565b6001600160a01b03959095166040840152505090151560609091015292915050565b60e08152600062000f1b60e083018a62000e8d565b828103602084015262000f2f818a62000e8d565b6001600160a01b03898116604086015260608501899052848203608086015290915062000f5d828862000c97565b925080861660a085015280851660c0850152505098975050505050505050565b634e487b7160e01b600052603260045260246000fdfe60c06040523480156200001157600080fd5b506040516200317a3803806200317a833981016040819052620000349162000209565b838360036200004483826200033d565b5060046200005382826200033d565b505050620000706200006a620000d060201b60201c565b620000d4565b6200007e6012600a6200051e565b60805280151560a0526200009282620000d4565b808015620000a757506001600160a01b038216155b15620000c65760405163a75cca0560e01b815260040160405180910390fd5b5050505062000536565b3390565b600680546001600160a01b0319169055620000ef81620000f2565b50565b600580546001600160a01b038381166001600160a01b0319831681179093556040519116919082907f8be0079c531659141344cd1fd0a4f28419497f9722a3daafe3b4186f6b6457e090600090a35050565b634e487b7160e01b600052604160045260246000fd5b600082601f8301126200016c57600080fd5b81516001600160401b038082111562000189576200018962000144565b604051601f8301601f19908116603f01168101908282118183101715620001b457620001b462000144565b81604052838152602092508683858801011115620001d157600080fd5b600091505b83821015620001f55785820183015181830184015290820190620001d6565b600093810190920192909252949350505050565b600080600080608085870312156200022057600080fd5b84516001600160401b03808211156200023857600080fd5b62000246888389016200015a565b955060208701519150808211156200025d57600080fd5b506200026c878288016200015a565b604087015190945090506001600160a01b03811681146200028c57600080fd5b60608601519092508015158114620002a357600080fd5b939692955090935050565b600181811c90821680620002c357607f821691505b602082108103620002e457634e487b7160e01b600052602260045260246000fd5b50919050565b601f8211156200033857600081815260208120601f850160051c81016020861015620003135750805b601f850160051c820191505b8181101562000334578281556001016200031f565b5050505b505050565b81516001600160401b0381111562000359576200035962000144565b62000371816200036a8454620002ae565b84620002ea565b602080601f831160018114620003a95760008415620003905750858301515b600019600386901b1c1916600185901b17855562000334565b600085815260208120601f198616915b82811015620003da57888601518255948401946001909101908401620003b9565b5085821015620003f95787850151600019600388901b60f8161c191681555b5050505050600190811b01905550565b634e487b7160e01b600052601160045260246000fd5b600181815b808511156200046057816000190482111562000444576200044462000409565b808516156200045257918102915b93841c939080029062000424565b509250929050565b600082620004795750600162000518565b81620004885750600062000518565b8160018114620004a15760028114620004ac57620004cc565b600191505062000518565b60ff841115620004c057620004c062000409565b50506001821b62000518565b5060208310610133831016604e8410600b8410161715620004f1575081810a62000518565b620004fd83836200041f565b806000190482111562000514576200051462000409565b0290505b92915050565b60006200052f60ff84168362000468565b9392505050565b60805160a051612c0962000571600039600081816106300152611fd201526000818161058001528181610c540152610fd00152612c096000f3fe608060405234801561001057600080fd5b50600436106102745760003560e01c80637bfe950c11610151578063ba17995e116100c3578063e2a4157c11610087578063e2a4157c146105e0578063e30c3978146105e8578063f23a6e61146105f9578063f2fde38b14610618578063f7eca6d01461062b578063f88663761461065257600080fd5b8063ba17995e14610549578063bc197c811461055c578063c2ee3a081461057b578063cbf1304d146105a2578063dd62ed3e146105cd57600080fd5b80638da5cb5b116101155780638da5cb5b146104d057806395d89b41146104f55780639ac24687146104fd578063a457c2d714610510578063a9059cbb14610523578063b58d77501461053657600080fd5b80637bfe950c1461047b5780637cc253701461048e5780637ccc2ec2146104975780637ddc2cd1146104aa57806386937eb4146104bd57600080fd5b8063313ce567116101ea57806356359baa116101ae57806356359baa146104045780636b818c211461040c57806370a082311461041f578063715018a61461044857806377c269151461045057806379ba50971461047357600080fd5b8063313ce5671461039757806339509351146103a65780633a51f383146103b95780634c4c45de146103ce57806351e0e26b146103e157600080fd5b80630c7056b81161023c5780630c7056b8146102fe578063139f11441461031f578063150b7a021461033257806318160ddd1461036957806320e8c5651461037157806323b872dd1461038457600080fd5b806301ffc9a71461027957806306d81bf4146102a157806306fdde03146102c157806308d07a6e146102d6578063095ea7b3146102eb575b600080fd5b61028c6102873660046121fc565b610665565b60405190151581526020015b60405180910390f35b6102b46102af36600461223b565b61069c565b6040516102989190612303565b6102c9610796565b604051610298919061235c565b6102e96102e436600461223b565b610828565b005b61028c6102f936600461236f565b61088b565b61031161030c3660046123af565b6108a3565b604051908152602001610298565b61031161032d36600461236f565b610977565b6103506103403660046124c4565b630a85bd0160e11b949350505050565b6040516001600160e01b03199091168152602001610298565b600254610311565b61031161037f366004612530565b610b21565b61028c610392366004612576565b610c8d565b60405160128152602001610298565b61028c6103b436600461236f565b610cb1565b6103c1610cd3565b60405161029891906125b7565b6103116103dc366004612688565b610d81565b61028c6103ef36600461223b565b600e6020526000908152604090205460ff1681565b610311610e03565b6102e961041a36600461223b565b610e14565b61031161042d36600461223b565b6001600160a01b031660009081526020819052604090205490565b6102e9610e6d565b61028c61045e36600461223b565b600d6020526000908152604090205460ff1681565b6102e9610e81565b610311610489366004612530565b610f00565b61031160075481565b6102e96104a5366004612777565b61117c565b6102e96104b836600461289c565b611411565b6103116104cb366004612688565b611520565b6005546001600160a01b03165b6040516001600160a01b039091168152602001610298565b6102c96115a2565b61031161050b366004612777565b6115b1565b61028c61051e36600461236f565b6115e1565b61028c61053136600461236f565b61165c565b61028c61054436600461236f565b61166a565b6102e961055736600461223b565b6116d8565b61035061056a3660046128f5565b63bc197c8160e01b95945050505050565b6103117f000000000000000000000000000000000000000000000000000000000000000081565b6103116105b036600461236f565b600c60209081526000928352604080842090915290825290205481565b6103116105db3660046129a3565b611731565b61028c61175c565b6006546001600160a01b03166104dd565b6103506106073660046129dc565b63f23a6e6160e01b95945050505050565b6102e961062636600461223b565b611781565b61028c7f000000000000000000000000000000000000000000000000000000000000000081565b6102e961066036600461223b565b6117f2565b60006001600160e01b03198216630271189760e51b148061069657506301ffc9a760e01b6001600160e01b03198316145b92915050565b604080516080810182526000808252602082018190529181019190915260608082015260408051608081019091526001600160a01b0383168152602081016106e560088561184e565b60018111156106f6576106f6612258565b600181111561070757610707612258565b81526001600160a01b0384166000818152600b60208181526040808420600281015460ff16151583880152949093529081526001909201805482518185028101850184528181529290940193919290919083018282801561078757602002820191906000526020600020905b815481526020019060010190808311610773575b50505050508152509050919050565b6060600380546107a590612a45565b80601f01602080910402602001604051908101604052809291908181526020018280546107d190612a45565b801561081e5780601f106107f35761010080835404028352916020019161081e565b820191906000526020600020905b81548152906001019060200180831161080157829003601f168201915b5050505050905090565b61083061186a565b6001600160a01b0381166000818152600d6020908152604091829020805460ff1916600117905590519182527f030cce260278602bfb26ccccdc5f671d84efe08107ce59844f32950f72e2578b91015b60405180910390a150565b6000336108998185856118c4565b5060019392505050565b6000806108b7846380ac58cd60e01b6119e9565b905060006108cc85636cdb3d1360e11b6119e9565b90508180156108d9575080155b80156108f7575060008460018111156108f4576108f4612258565b14155b1561091557604051630617a45f60e21b815260040160405180910390fd5b808015610920575081155b801561093e5750600184600181111561093b5761093b612258565b14155b1561095c57604051632905a02760e11b815260040160405180910390fd5b83600181111561096e5761096e612258565b95945050505050565b6001600160a01b0382166000908152600c60209081526040808320848452909152812054816109a760088661184e565b60018111156109b8576109b8612258565b905060008160018111156109ce576109ce612258565b03610a6d5781158015610a5257506040516331a9108f60e11b81526004810185905230906001600160a01b03871690636352211e90602401602060405180830381865afa158015610a23573d6000803e3d6000fd5b505050506040513d601f19601f82011682018060405250810190610a479190612a7f565b6001600160a01b0316145b15610a6257600192505050610696565b600092505050610696565b6001816001811115610a8157610a81612258565b03610b0857604051627eeac760e11b81523060048201526024810185905282906001600160a01b0387169062fdd58e90604401602060405180830381865afa158015610ad1573d6000803e3d6000fd5b505050506040513d601f19601f82011682018060405250810190610af59190612a9c565b610aff9190612acb565b92505050610696565b6040516349f157c160e01b815260040160405180910390fd5b6000610b2b61175c565b8015610b475750336000908152600d602052604090205460ff16155b15610b6557604051631eb49d6d60e11b815260040160405180910390fd5b610b6f848461166a565b610b8c5760405163edcb51b160e01b815260040160405180910390fd5b6000610b988585610977565b9050821580610ba657508281105b15610bc4576040516349986e7360e01b815260040160405180910390fd5b6001600160a01b0385166000908152600c6020908152604080832087845290915281208054859290610bf7908490612ade565b9091555050604080516001600160a01b03808916825287166020820152908101859052606081018490527fdcbc1c05240f31ff3ad067ef1ee35ce4997762752e3a095284754544f4c709d79060800160405180910390a1610c78837f0000000000000000000000000000000000000000000000000000000000000000612af1565b9150610c848683611a05565b50949350505050565b600033610c9b858285611ad0565b610ca6858585611b4a565b506001949350505050565b600033610899818585610cc48383611731565b610cce9190612ade565b6118c4565b6060610cdf6008611cf9565b67ffffffffffffffff811115610cf757610cf76123e4565b604051908082528060200260200182016040528015610d20578160200160208202803683370190505b50905060005b8151811015610d7d576000610d3c600883611d04565b50905080838381518110610d5257610d52612b08565b6001600160a01b03909216602092830291909101909101525080610d7581612b1e565b915050610d26565b5090565b6000805b8451811015610c8457610de586868381518110610da457610da4612b08565b6020026020010151868481518110610dbe57610dbe612b08565b6020026020010151868581518110610dd857610dd8612b08565b6020026020010151610b21565b610def9083612ade565b915080610dfb81612b1e565b915050610d85565b6000610e0f6008611cf9565b905090565b610e1c61186a565b6001600160a01b0381166000818152600e6020908152604091829020805460ff1916905590519182527f0656790163d1f19f3fd47f27f62dcc64c9004ba44d951b8c1e6464617cc120169101610880565b610e7561186a565b610e7f6000611d22565b565b60065433906001600160a01b03168114610ef45760405162461bcd60e51b815260206004820152602960248201527f4f776e61626c6532537465703a2063616c6c6572206973206e6f7420746865206044820152683732bb9037bbb732b960b91b60648201526084015b60405180910390fd5b610efd81611d22565b50565b6000610f0a61175c565b8015610f265750336000908152600d602052604090205460ff16155b15610f4457604051631eb49d6d60e11b815260040160405180910390fd5b811580610f7357506001600160a01b0384166000908152600c6020908152604080832086845290915290205482115b15610f91576040516349986e7360e01b815260040160405180910390fd5b6001600160a01b0384166000908152600c6020908152604080832086845290915281208054849290610fc4908490612acb565b90915550610ff49050827f0000000000000000000000000000000000000000000000000000000000000000612af1565b90506110003082611d3b565b600061100d60088661184e565b600181111561101e5761101e612258565b9050600081600181111561103457611034612258565b036110c8578260011461105a5760405163545c577160e01b815260040160405180910390fd5b604051632142170760e11b81523060048201526001600160a01b038781166024830152604482018690528616906342842e0e906064015b600060405180830381600087803b1580156110ab57600080fd5b505af11580156110bf573d6000803e3d6000fd5b50505050611121565b60018160018111156110dc576110dc612258565b03610b085760408051602081018252600081529051637921219560e11b81526001600160a01b0387169163f242432a916110919130918b918a918a9190600401612b37565b604080516001600160a01b03808916825287166020820152908101859052606081018490527ff341246adaac6f497bc2a656f546ab9e182111d630394f0c57c710a59a2cb5679060800160405180910390a150949350505050565b805160000361119e5760405163400277cd60e11b815260040160405180910390fd5b60006111aa6008611cf9565b11156111c9576040516302ed543d60e51b815260040160405180910390fd5b6111d2816115b1565b60075560005b815181101561140d5760008282815181106111f5576111f5612b08565b602002602001015190508060400151801561121557506000816060015151115b1561123357604051634cdbbbef60e11b815260040160405180910390fd5b6000611247826000015183602001516108a3565b82519091506112599060089083611e76565b506040828101805184516001600160a01b03166000908152600b60205292909220600201805460ff191692151592909217909155511561129a5750506113fb565b8160600151516000036112c0576040516390f22bf160e01b815260040160405180910390fd5b6000805b8360600151518110156113bf576000846060015182815181106112e9576112e9612b08565b602002602001015190508281101561131457604051631f13bcf760e21b815260040160405180910390fd5b80925084516001600160a01b03166000908152600b6020908152604080832084845290915290205460ff161561135d5760405163403b2b6760e01b815260040160405180910390fd5b84516001600160a01b039081166000908152600b602081815260408084208685528252808420805460ff191660019081179091558a519095168452918152908220830180549384018155825290200155806113b781612b1e565b9150506112c4565b507f2ebca503d1d899889b8a6d039632aa576bbff8cb8233491fbaece7f7773c3417836040516113ef9190612303565b60405180910390a15050505b8061140581612b1e565b9150506111d8565b5050565b61141b838361166a565b156114395760405163578d6bb760e11b815260040160405180910390fd5b600084600181111561144d5761144d612258565b036114c057604051632142170760e11b81523060048201526001600160a01b038681166024830152604482018490528416906342842e0e906064015b600060405180830381600087803b1580156114a357600080fd5b505af11580156114b7573d6000803e3d6000fd5b50505050611519565b60018460018111156114d4576114d4612258565b03610b085760408051602081018252600081529051637921219560e11b81526001600160a01b0385169163f242432a916114899130918a918891889190600401612b37565b5050505050565b6000805b8451811015610c84576115848686838151811061154357611543612b08565b602002602001015186848151811061155d5761155d612b08565b602002602001015186858151811061157757611577612b08565b6020026020010151610f00565b61158e9083612ade565b91508061159a81612b1e565b915050611524565b6060600480546107a590612a45565b6000816040516020016115c49190612b71565b604051602081830303815290604052805190602001209050919050565b600033816115ef8286611731565b90508381101561164f5760405162461bcd60e51b815260206004820152602560248201527f45524332303a2064656372656173656420616c6c6f77616e63652062656c6f77604482015264207a65726f60d81b6064820152608401610eeb565b610ca682868684036118c4565b600033610899818585611b4a565b600080611678600885611e8c565b5090508080156116d057506001600160a01b0384166000908152600b602052604090206002015460ff16806116d057506001600160a01b0384166000908152600b6020908152604080832086845290915290205460ff165b949350505050565b6116e061186a565b6001600160a01b0381166000818152600d6020908152604091829020805460ff1916905590519182527f12fd803fe7d87397a667782c7edf4f67012f29cfab470f1449d80fee00b2a3349101610880565b6001600160a01b03918216600090815260016020908152604080832093909416825291909152205490565b6000806117716005546001600160a01b031690565b6001600160a01b03161415905090565b61178961186a565b600680546001600160a01b0383166001600160a01b031990911681179091556117ba6005546001600160a01b031690565b6001600160a01b03167f38d16b8cac22d99fc7c124b9cd0de2d3fa1faef420bfe791d8c362d765e2270060405160405180910390a350565b6117fa61186a565b6001600160a01b0381166000818152600e6020908152604091829020805460ff1916600117905590519182527fdb0b6cc5c066acd8bdcc32e51e8f1c6bfd5f22ea503a72e54d3684bf389bba159101610880565b6000611863836001600160a01b038416611ea4565b9392505050565b6005546001600160a01b03163314610e7f5760405162461bcd60e51b815260206004820181905260248201527f4f776e61626c653a2063616c6c6572206973206e6f7420746865206f776e65726044820152606401610eeb565b6001600160a01b0383166119265760405162461bcd60e51b8152602060048201526024808201527f45524332303a20617070726f76652066726f6d20746865207a65726f206164646044820152637265737360e01b6064820152608401610eeb565b6001600160a01b0382166119875760405162461bcd60e51b815260206004820152602260248201527f45524332303a20617070726f766520746f20746865207a65726f206164647265604482015261737360f01b6064820152608401610eeb565b6001600160a01b0383811660008181526001602090815260408083209487168084529482529182902085905590518481527f8c5be1e5ebec7d5bd14f71427d1e84f3dd0314c0f7b2291e5b200ac8c7c3b92591015b60405180910390a3505050565b60006119f483611f14565b801561186357506118638383611f47565b6001600160a01b038216611a5b5760405162461bcd60e51b815260206004820152601f60248201527f45524332303a206d696e7420746f20746865207a65726f2061646472657373006044820152606401610eeb565b611a6760008383611fd0565b8060026000828254611a799190612ade565b90915550506001600160a01b038216600081815260208181526040808320805486019055518481527fddf252ad1be2c89b69c2b068fc378daa952ba7f163c4a11628f55a4df523b3ef910160405180910390a35050565b6000611adc8484611731565b90506000198114611b445781811015611b375760405162461bcd60e51b815260206004820152601d60248201527f45524332303a20696e73756666696369656e7420616c6c6f77616e63650000006044820152606401610eeb565b611b4484848484036118c4565b50505050565b6001600160a01b038316611bae5760405162461bcd60e51b815260206004820152602560248201527f45524332303a207472616e736665722066726f6d20746865207a65726f206164604482015264647265737360d81b6064820152608401610eeb565b6001600160a01b038216611c105760405162461bcd60e51b815260206004820152602360248201527f45524332303a207472616e7366657220746f20746865207a65726f206164647260448201526265737360e81b6064820152608401610eeb565b611c1b838383611fd0565b6001600160a01b03831660009081526020819052604090205481811015611c935760405162461bcd60e51b815260206004820152602660248201527f45524332303a207472616e7366657220616d6f756e7420657863656564732062604482015265616c616e636560d01b6064820152608401610eeb565b6001600160a01b03848116600081815260208181526040808320878703905593871680835291849020805487019055925185815290927fddf252ad1be2c89b69c2b068fc378daa952ba7f163c4a11628f55a4df523b3ef910160405180910390a3611b44565b60006106968261205e565b6000808080611d138686612069565b909450925050505b9250929050565b600680546001600160a01b0319169055610efd81612094565b6001600160a01b038216611d9b5760405162461bcd60e51b815260206004820152602160248201527f45524332303a206275726e2066726f6d20746865207a65726f206164647265736044820152607360f81b6064820152608401610eeb565b611da782600083611fd0565b6001600160a01b03821660009081526020819052604090205481811015611e1b5760405162461bcd60e51b815260206004820152602260248201527f45524332303a206275726e20616d6f756e7420657863656564732062616c616e604482015261636560f01b6064820152608401610eeb565b6001600160a01b0383166000818152602081815260408083208686039055600280548790039055518581529192917fddf252ad1be2c89b69c2b068fc378daa952ba7f163c4a11628f55a4df523b3ef91016119dc565b505050565b60006116d0846001600160a01b038516846120e6565b6000808080611d13866001600160a01b038716612103565b600081815260028301602052604081205480151580611ec85750611ec8848461213d565b6118635760405162461bcd60e51b815260206004820152601e60248201527f456e756d657261626c654d61703a206e6f6e6578697374656e74206b657900006044820152606401610eeb565b6000611f27826301ffc9a760e01b611f47565b80156106965750611f40826001600160e01b0319611f47565b1592915050565b604080516001600160e01b03198316602480830191909152825180830390910181526044909101909152602080820180516001600160e01b03166301ffc9a760e01b178152825160009392849283928392918391908a617530fa92503d91506000519050828015611fb9575060208210155b8015611fc55750600081115b979650505050505050565b7f0000000000000000000000000000000000000000000000000000000000000000801561200657506001600160a01b0382163014155b801561201b57506001600160a01b0382163b15155b801561204057506001600160a01b0382166000908152600e602052604090205460ff16155b15611e71576040516330c425bd60e11b815260040160405180910390fd5b600061069682612149565b600080806120778585612153565b600081815260029690960160205260409095205494959350505050565b600580546001600160a01b038381166001600160a01b0319831681179093556040519116919082907f8be0079c531659141344cd1fd0a4f28419497f9722a3daafe3b4186f6b6457e090600090a35050565b600082815260028401602052604081208290556116d0848461215f565b600081815260028301602052604081205481908061213257612125858561213d565b925060009150611d1b9050565b600192509050611d1b565b6000611863838361216b565b6000610696825490565b60006118638383612183565b600061186383836121ad565b60008181526001830160205260408120541515611863565b600082600001828154811061219a5761219a612b08565b9060005260206000200154905092915050565b60008181526001830160205260408120546121f457508154600181810184556000848152602080822090930184905584548482528286019093526040902091909155610696565b506000610696565b60006020828403121561220e57600080fd5b81356001600160e01b03198116811461186357600080fd5b6001600160a01b0381168114610efd57600080fd5b60006020828403121561224d57600080fd5b813561186381612226565b634e487b7160e01b600052602160045260246000fd5b80516001600160a01b031682526020808201516000916080850191600281106122a757634e487b7160e01b600052602160045260246000fd5b8582015260408481015115159086015260608085015160809187019190915280519283905281019160009060a08701905b808310156122f857845182529383019360019290920191908301906122d8565b509695505050505050565b602081526000611863602083018461226e565b6000815180845260005b8181101561233c57602081850181015186830182015201612320565b506000602082860101526020601f19601f83011685010191505092915050565b6020815260006118636020830184612316565b6000806040838503121561238257600080fd5b823561238d81612226565b946020939093013593505050565b8035600281106123aa57600080fd5b919050565b600080604083850312156123c257600080fd5b82356123cd81612226565b91506123db6020840161239b565b90509250929050565b634e487b7160e01b600052604160045260246000fd5b6040516080810167ffffffffffffffff8111828210171561241d5761241d6123e4565b60405290565b604051601f8201601f1916810167ffffffffffffffff8111828210171561244c5761244c6123e4565b604052919050565b600082601f83011261246557600080fd5b813567ffffffffffffffff81111561247f5761247f6123e4565b612492601f8201601f1916602001612423565b8181528460208386010111156124a757600080fd5b816020850160208301376000918101602001919091529392505050565b600080600080608085870312156124da57600080fd5b84356124e581612226565b935060208501356124f581612226565b925060408501359150606085013567ffffffffffffffff81111561251857600080fd5b61252487828801612454565b91505092959194509250565b6000806000806080858703121561254657600080fd5b843561255181612226565b9350602085013561256181612226565b93969395505050506040820135916060013590565b60008060006060848603121561258b57600080fd5b833561259681612226565b925060208401356125a681612226565b929592945050506040919091013590565b6020808252825182820181905260009190848201906040850190845b818110156125f85783516001600160a01b0316835292840192918401916001016125d3565b50909695505050505050565b600067ffffffffffffffff82111561261e5761261e6123e4565b5060051b60200190565b600082601f83011261263957600080fd5b8135602061264e61264983612604565b612423565b82815260059290921b8401810191818101908684111561266d57600080fd5b8286015b848110156122f85780358352918301918301612671565b6000806000806080858703121561269e57600080fd5b84356126a981612226565b935060208581013567ffffffffffffffff808211156126c757600080fd5b818801915088601f8301126126db57600080fd5b81356126e961264982612604565b81815260059190911b8301840190848101908b83111561270857600080fd5b938501935b8285101561272f57843561272081612226565b8252938501939085019061270d565b97505050604088013592508083111561274757600080fd5b61275389848a01612628565b9450606088013592508083111561276957600080fd5b505061252487828801612628565b6000602080838503121561278a57600080fd5b823567ffffffffffffffff808211156127a257600080fd5b818501915085601f8301126127b657600080fd5b81356127c461264982612604565b81815260059190911b830184019084810190888311156127e357600080fd5b8585015b8381101561288f578035858111156127ff5760008081fd5b86016080818c03601f19018113156128175760008081fd5b61281f6123fa565b8983013561282c81612226565b8152604061283b84820161239b565b8b83015260608085013580151581146128545760008081fd5b8383015292840135928984111561286d57600091508182fd5b61287b8f8d86880101612628565b9083015250855250509186019186016127e7565b5098975050505050505050565b600080600080600060a086880312156128b457600080fd5b85356128bf81612226565b94506128cd6020870161239b565b935060408601356128dd81612226565b94979396509394606081013594506080013592915050565b600080600080600060a0868803121561290d57600080fd5b853561291881612226565b9450602086013561292881612226565b9350604086013567ffffffffffffffff8082111561294557600080fd5b61295189838a01612628565b9450606088013591508082111561296757600080fd5b61297389838a01612628565b9350608088013591508082111561298957600080fd5b5061299688828901612454565b9150509295509295909350565b600080604083850312156129b657600080fd5b82356129c181612226565b915060208301356129d181612226565b809150509250929050565b600080600080600060a086880312156129f457600080fd5b85356129ff81612226565b94506020860135612a0f81612226565b93506040860135925060608601359150608086013567ffffffffffffffff811115612a3957600080fd5b61299688828901612454565b600181811c90821680612a5957607f821691505b602082108103612a7957634e487b7160e01b600052602260045260246000fd5b50919050565b600060208284031215612a9157600080fd5b815161186381612226565b600060208284031215612aae57600080fd5b5051919050565b634e487b7160e01b600052601160045260246000fd5b8181038181111561069657610696612ab5565b8082018082111561069657610696612ab5565b808202811582820484141761069657610696612ab5565b634e487b7160e01b600052603260045260246000fd5b600060018201612b3057612b30612ab5565b5060010190565b6001600160a01b03868116825285166020820152604081018490526060810183905260a060808201819052600090611fc590830184612316565b6000602080830181845280855180835260408601915060408160051b870101925083870160005b82811015612bc657603f19888603018452612bb485835161226e565b94509285019290850190600101612b98565b509297965050505050505056fea26469706673582212203cdca9e3b0897dc89c67e2447c62a331020b9fa26ad27544e85e514be8790f9864736f6c63430008130033a2646970667358221220cb9202c298b93cf1388a99d4d6cf03cf47bff3b2d4a9ae3bda5e3e9c133af48264736f6c63430008130033",
    "linkReferences": {}
  },
  "methodIdentifiers": {
    "createVault((address,uint8,bool,uint256[])[],address,bool)": "cf25a9d3",
    "exists((address,uint8,bool,uint256[])[])": "f68790c7",
    "getAllPermissionedVaults()": "f853ca3d",
    "getAllVaults()": "97331bf9",
    "getPermissionedVaultAt(uint256)": "77f7154b",
    "getPermissionedVaultLength()": "2c1067d8",
    "getVault((address,uint8,bool,uint256[])[])": "f3964551",
    "getVaultAt(uint256)": "7a98742d",
    "getVaultLength()": "812617c7",
    "hashVault((address,uint8,bool,uint256[])[])": "9ac24687",
    "isPermissionedVault(address)": "5c870c6d",
    "isVault(address)": "652b9b41",
    "vaultHashMap(bytes32)": "74449c60",
    "vaultIdMap(address)": "d126fc19"
  },
  "id": 90
}