{
  "abi": [
    {
      "inputs": [],
      "stateMutability": "nonpayable",
      "type": "constructor"
    },
    {
      "anonymous": false,
      "inputs": [
        {
          "indexed": true,
          "internalType": "address",
          "name": "owner",
          "type": "address"
        },
        {
          "indexed": true,
          "internalType": "address",
          "name": "spender",
          "type": "address"
        },
        {
          "indexed": false,
          "internalType": "uint256",
          "name": "value",
          "type": "uint256"
        }
      ],
      "name": "Approval",
      "type": "event"
    },
    {
      "anonymous": false,
      "inputs": [
        {
          "indexed": true,
          "internalType": "address",
          "name": "sender",
          "type": "address"
        },
        {
          "indexed": false,
          "internalType": "uint256",
          "name": "amount0",
          "type": "uint256"
        },
        {
          "indexed": false,
          "internalType": "uint256",
          "name": "amount1",
          "type": "uint256"
        },
        {
          "indexed": true,
          "internalType": "address",
          "name": "to",
          "type": "address"
        }
      ],
      "name": "Burn",
      "type": "event"
    },
    {
      "anonymous": false,
      "inputs": [
        {
          "indexed": false,
          "internalType": "uint16",
          "name": "observationCardinalityNextOld",
          "type": "uint16"
        },
        {
          "indexed": false,
          "internalType": "uint16",
          "name": "observationCardinalityNextNew",
          "type": "uint16"
        }
      ],
      "name": "IncreaseObservationCardinalityNext",
      "type": "event"
    },
    {
      "anonymous": false,
      "inputs": [
        {
          "indexed": true,
          "internalType": "address",
          "name": "sender",
          "type": "address"
        },
        {
          "indexed": false,
          "internalType": "uint256",
          "name": "amount0",
          "type": "uint256"
        },
        {
          "indexed": false,
          "internalType": "uint256",
          "name": "amount1",
          "type": "uint256"
        }
      ],
      "name": "Mint",
      "type": "event"
    },
    {
      "anonymous": false,
      "inputs": [
        {
          "indexed": true,
          "internalType": "address",
          "name": "sender",
          "type": "address"
        },
        {
          "indexed": false,
          "internalType": "uint256",
          "name": "amount0In",
          "type": "uint256"
        },
        {
          "indexed": false,
          "internalType": "uint256",
          "name": "amount1In",
          "type": "uint256"
        },
        {
          "indexed": false,
          "internalType": "uint256",
          "name": "amount0Out",
          "type": "uint256"
        },
        {
          "indexed": false,
          "internalType": "uint256",
          "name": "amount1Out",
          "type": "uint256"
        },
        {
          "indexed": true,
          "internalType": "address",
          "name": "to",
          "type": "address"
        }
      ],
      "name": "Swap",
      "type": "event"
    },
    {
      "anonymous": false,
      "inputs": [
        {
          "indexed": false,
          "internalType": "uint112",
          "name": "reserve0",
          "type": "uint112"
        },
        {
          "indexed": false,
          "internalType": "uint112",
          "name": "reserve1",
          "type": "uint112"
        }
      ],
      "name": "Sync",
      "type": "event"
    },
    {
      "anonymous": false,
      "inputs": [
        {
          "indexed": true,
          "internalType": "address",
          "name": "from",
          "type": "address"
        },
        {
          "indexed": true,
          "internalType": "address",
          "name": "to",
          "type": "address"
        },
        {
          "indexed": false,
          "internalType": "uint256",
          "name": "value",
          "type": "uint256"
        }
      ],
      "name": "Transfer",
      "type": "event"
    },
    {
      "inputs": [],
      "name": "BASIS_POINTS",
      "outputs": [
        {
          "internalType": "uint256",
          "name": "",
          "type": "uint256"
        }
      ],
      "stateMutability": "view",
      "type": "function"
    },
    {
      "inputs": [],
      "name": "DOMAIN_SEPARATOR",
      "outputs": [
        {
          "internalType": "bytes32",
          "name": "",
          "type": "bytes32"
        }
      ],
      "stateMutability": "view",
      "type": "function"
    },
    {
      "inputs": [],
      "name": "MINIMUM_LIQUIDITY",
      "outputs": [
        {
          "internalType": "uint256",
          "name": "",
          "type": "uint256"
        }
      ],
      "stateMutability": "view",
      "type": "function"
    },
    {
      "inputs": [],
      "name": "PERMIT_TYPEHASH",
      "outputs": [
        {
          "internalType": "bytes32",
          "name": "",
          "type": "bytes32"
        }
      ],
      "stateMutability": "view",
      "type": "function"
    },
    {
      "inputs": [],
      "name": "TOKEN0_DECIMALS",
      "outputs": [
        {
          "internalType": "uint256",
          "name": "",
          "type": "uint256"
        }
      ],
      "stateMutability": "view",
      "type": "function"
    },
    {
      "inputs": [
        {
          "internalType": "address",
          "name": "",
          "type": "address"
        },
        {
          "internalType": "address",
          "name": "",
          "type": "address"
        }
      ],
      "name": "allowance",
      "outputs": [
        {
          "internalType": "uint256",
          "name": "",
          "type": "uint256"
        }
      ],
      "stateMutability": "view",
      "type": "function"
    },
    {
      "inputs": [
        {
          "internalType": "address",
          "name": "spender",
          "type": "address"
        },
        {
          "internalType": "uint256",
          "name": "value",
          "type": "uint256"
        }
      ],
      "name": "approve",
      "outputs": [
        {
          "internalType": "bool",
          "name": "",
          "type": "bool"
        }
      ],
      "stateMutability": "nonpayable",
      "type": "function"
    },
    {
      "inputs": [
        {
          "internalType": "address",
          "name": "",
          "type": "address"
        }
      ],
      "name": "balanceOf",
      "outputs": [
        {
          "internalType": "uint256",
          "name": "",
          "type": "uint256"
        }
      ],
      "stateMutability": "view",
      "type": "function"
    },
    {
      "inputs": [
        {
          "internalType": "address",
          "name": "to",
          "type": "address"
        }
      ],
      "name": "burn",
      "outputs": [
        {
          "internalType": "uint256",
          "name": "amount0",
          "type": "uint256"
        },
        {
          "internalType": "uint256",
          "name": "amount1",
          "type": "uint256"
        }
      ],
      "stateMutability": "nonpayable",
      "type": "function"
    },
    {
      "inputs": [],
      "name": "decimals",
      "outputs": [
        {
          "internalType": "uint8",
          "name": "",
          "type": "uint8"
        }
      ],
      "stateMutability": "view",
      "type": "function"
    },
    {
      "inputs": [],
      "name": "factory",
      "outputs": [
        {
          "internalType": "address",
          "name": "",
          "type": "address"
        }
      ],
      "stateMutability": "view",
      "type": "function"
    },
    {
      "inputs": [],
      "name": "getReserves",
      "outputs": [
        {
          "internalType": "uint112",
          "name": "_reserve0",
          "type": "uint112"
        },
        {
          "internalType": "uint112",
          "name": "_reserve1",
          "type": "uint112"
        },
        {
          "internalType": "uint32",
          "name": "_blockTimestampLast",
          "type": "uint32"
        }
      ],
      "stateMutability": "view",
      "type": "function"
    },
    {
      "inputs": [
        {
          "internalType": "uint16",
          "name": "_observationCardinalityNext",
          "type": "uint16"
        }
      ],
      "name": "increaseObservationCardinalityNext",
      "outputs": [],
      "stateMutability": "nonpayable",
      "type": "function"
    },
    {
      "inputs": [
        {
          "internalType": "address",
          "name": "_token0",
          "type": "address"
        },
        {
          "internalType": "address",
          "name": "_token1",
          "type": "address"
        }
      ],
      "name": "initialize",
      "outputs": [],
      "stateMutability": "nonpayable",
      "type": "function"
    },
    {
      "inputs": [],
      "name": "lastPrice",
      "outputs": [
        {
          "internalType": "uint256",
          "name": "",
          "type": "uint256"
        }
      ],
      "stateMutability": "view",
      "type": "function"
    },
    {
      "inputs": [
        {
          "internalType": "address",
          "name": "to",
          "type": "address"
        }
      ],
      "name": "mint",
      "outputs": [
        {
          "internalType": "uint256",
          "name": "liquidity",
          "type": "uint256"
        }
      ],
      "stateMutability": "nonpayable",
      "type": "function"
    },
    {
      "inputs": [],
      "name": "name",
      "outputs": [
        {
          "internalType": "string",
          "name": "",
          "type": "string"
        }
      ],
      "stateMutability": "view",
      "type": "function"
    },
    {
      "inputs": [
        {
          "internalType": "address",
          "name": "",
          "type": "address"
        }
      ],
      "name": "nonces",
      "outputs": [
        {
          "internalType": "uint256",
          "name": "",
          "type": "uint256"
        }
      ],
      "stateMutability": "view",
      "type": "function"
    },
    {
      "inputs": [],
      "name": "observationCardinality",
      "outputs": [
        {
          "internalType": "uint16",
          "name": "",
          "type": "uint16"
        }
      ],
      "stateMutability": "view",
      "type": "function"
    },
    {
      "inputs": [],
      "name": "observationCardinalityNext",
      "outputs": [
        {
          "internalType": "uint16",
          "name": "",
          "type": "uint16"
        }
      ],
      "stateMutability": "view",
      "type": "function"
    },
    {
      "inputs": [],
      "name": "observationIndex",
      "outputs": [
        {
          "internalType": "uint16",
          "name": "",
          "type": "uint16"
        }
      ],
      "stateMutability": "view",
      "type": "function"
    },
    {
      "inputs": [
        {
          "internalType": "uint256",
          "name": "",
          "type": "uint256"
        }
      ],
      "name": "observations",
      "outputs": [
        {
          "internalType": "uint32",
          "name": "blockTimestamp",
          "type": "uint32"
        },
        {
          "internalType": "uint256",
          "name": "priceCumulative",
          "type": "uint256"
        },
        {
          "internalType": "bool",
          "name": "initialized",
          "type": "bool"
        }
      ],
      "stateMutability": "view",
      "type": "function"
    },
    {
      "inputs": [
        {
          "internalType": "uint32[]",
          "name": "secondsAgos",
          "type": "uint32[]"
        }
      ],
      "name": "observe",
      "outputs": [
        {
          "internalType": "uint256[]",
          "name": "priceCumulatives",
          "type": "uint256[]"
        }
      ],
      "stateMutability": "view",
      "type": "function"
    },
    {
      "inputs": [
        {
          "internalType": "address",
          "name": "owner",
          "type": "address"
        },
        {
          "internalType": "address",
          "name": "spender",
          "type": "address"
        },
        {
          "internalType": "uint256",
          "name": "value",
          "type": "uint256"
        },
        {
          "internalType": "uint256",
          "name": "deadline",
          "type": "uint256"
        },
        {
          "internalType": "uint8",
          "name": "v",
          "type": "uint8"
        },
        {
          "internalType": "bytes32",
          "name": "r",
          "type": "bytes32"
        },
        {
          "internalType": "bytes32",
          "name": "s",
          "type": "bytes32"
        }
      ],
      "name": "permit",
      "outputs": [],
      "stateMutability": "nonpayable",
      "type": "function"
    },
    {
      "inputs": [
        {
          "internalType": "address",
          "name": "to",
          "type": "address"
        }
      ],
      "name": "skim",
      "outputs": [],
      "stateMutability": "nonpayable",
      "type": "function"
    },
    {
      "inputs": [
        {
          "internalType": "uint256",
          "name": "amount0Out",
          "type": "uint256"
        },
        {
          "internalType": "uint256",
          "name": "amount1Out",
          "type": "uint256"
        },
        {
          "internalType": "address",
          "name": "to",
          "type": "address"
        },
        {
          "internalType": "bytes",
          "name": "data",
          "type": "bytes"
        }
      ],
      "name": "swap",
      "outputs": [],
      "stateMutability": "nonpayable",
      "type": "function"
    },
    {
      "inputs": [],
      "name": "symbol",
      "outputs": [
        {
          "internalType": "string",
          "name": "",
          "type": "string"
        }
      ],
      "stateMutability": "view",
      "type": "function"
    },
    {
      "inputs": [],
      "name": "sync",
      "outputs": [],
      "stateMutability": "nonpayable",
      "type": "function"
    },
    {
      "inputs": [],
      "name": "token0",
      "outputs": [
        {
          "internalType": "address",
          "name": "",
          "type": "address"
        }
      ],
      "stateMutability": "view",
      "type": "function"
    },
    {
      "inputs": [],
      "name": "token1",
      "outputs": [
        {
          "internalType": "address",
          "name": "",
          "type": "address"
        }
      ],
      "stateMutability": "view",
      "type": "function"
    },
    {
      "inputs": [],
      "name": "totalSupply",
      "outputs": [
        {
          "internalType": "uint256",
          "name": "",
          "type": "uint256"
        }
      ],
      "stateMutability": "view",
      "type": "function"
    },
    {
      "inputs": [
        {
          "internalType": "address",
          "name": "to",
          "type": "address"
        },
        {
          "internalType": "uint256",
          "name": "value",
          "type": "uint256"
        }
      ],
      "name": "transfer",
      "outputs": [
        {
          "internalType": "bool",
          "name": "",
          "type": "bool"
        }
      ],
      "stateMutability": "nonpayable",
      "type": "function"
    },
    {
      "inputs": [
        {
          "internalType": "address",
          "name": "from",
          "type": "address"
        },
        {
          "internalType": "address",
          "name": "to",
          "type": "address"
        },
        {
          "internalType": "uint256",
          "name": "value",
          "type": "uint256"
        }
      ],
      "name": "transferFrom",
      "outputs": [
        {
          "internalType": "bool",
          "name": "",
          "type": "bool"
        }
      ],
      "stateMutability": "nonpayable",
      "type": "function"
    }
  ],
  "bytecode": {
    "object": "0x60806040526001620300095534801561001757600080fd5b50604080518082018252600c81526b26b0b3b4b1b9bbb0b8102b1960a11b6020918201528151808301835260018152603160f81b9082015281517f8b73c3c69bb8fe3d512ecc4cf759cc79239f7b179b0ffacaa9a75d522b39400f818301527fda3ebaaddc6a8bc958033d03ed4b3c5db1d0a3ab0ab4811bd54c6a47b69c207d818401527fc89efdaa54c0f20c7adf612882df0950f5a951637e0307cdcb4c672f298b8bc660608201524660808201523060a0808301919091528351808303909101815260c09091019092528151910120600355600680546001600160a01b0319163317905561327d8061010c6000396000f3fe608060405234801561001057600080fd5b50600436106101fb5760003560e01c80636a6278421161011a578063ba9a7a56116100ad578063d505accf1161007c578063d505accf1461050b578063d6cf0c371461051e578063dd62ed3e1461052c578063e1f1c4a714610557578063fff6cae91461056057600080fd5b8063ba9a7a56146104c9578063bc25cf77146104d2578063c45a0155146104e5578063d21220a7146104f857600080fd5b806389afcb44116100e957806389afcb441461045157806395d89b4114610479578063a9059cbb146104a0578063aab5497c146104b357600080fd5b80636a627842146103de57806370a08231146103f15780637ecebe0014610411578063883bdbfd1461043157600080fd5b8063252c09d71161019257806332148f671161016157806332148f67146103a65780633644e515146103b9578063485cc955146103c25780634f1a4708146103d557600080fd5b8063252c09d7146103075780632b8e06661461033e57806330adf81f14610365578063313ce5671461038c57600080fd5b8063095ea7b3116101ce578063095ea7b31461029d5780630dfe1681146102c057806318160ddd146102eb57806323b872dd146102f457600080fd5b8063022c0d9f14610200578063053f14da1461021557806306fdde03146102315780630902f1ac14610269575b600080fd5b61021361020e366004612b4e565b610568565b005b61021e600a5481565b6040519081526020015b60405180910390f35b61025c6040518060400160405280600c81526020016b26b0b3b4b1b9bbb0b8102b1960a11b81525081565b6040516102289190612c08565b610271610b10565b604080516001600160701b03948516815293909216602084015263ffffffff1690820152606001610228565b6102b06102ab366004612c3b565b610b3a565b6040519015158152602001610228565b6007546102d3906001600160a01b031681565b6040516001600160a01b039091168152602001610228565b61021e60005481565b6102b0610302366004612c67565b610b51565b61031a610315366004612ca8565b610be6565b6040805163ffffffff90941684526020840192909252151590820152606001610228565b600b546103529062010000900461ffff1681565b60405161ffff9091168152602001610228565b61021e7f6e71edae12b1b97f4d1f60370fef10105fa2faae0126114a169c64845d6126c981565b610394601281565b60405160ff9091168152602001610228565b6102136103b4366004612cc1565b610c18565b61021e60035481565b6102136103d0366004612ce5565b610cda565b61021e60055481565b61021e6103ec366004612d1e565b610e23565b61021e6103ff366004612d1e565b60016020526000908152604090205481565b61021e61041f366004612d1e565b60046020526000908152604090205481565b61044461043f366004612d3b565b6110ba565b6040516102289190612db0565b61046461045f366004612d1e565b611113565b60408051928352602083019190915201610228565b61025c6040518060400160405280600881526020016726a0a3a4a196ab1960c11b81525081565b6102b06104ae366004612c3b565b611449565b600b5461035290640100000000900461ffff1681565b61021e6103e881565b6102136104e0366004612d1e565b611456565b6006546102d3906001600160a01b031681565b6008546102d3906001600160a01b031681565b610213610519366004612e03565b611564565b600b546103529061ffff1681565b61021e61053a366004612ce5565b600260209081526000928352604080842090915290825290205481565b61021e61271081565b61021361177a565b62030009546001146105955760405162461bcd60e51b815260040161058c90612e74565b60405180910390fd5b60006203000955841515806105aa5750600084115b6106065760405162461bcd60e51b815260206004820152602760248201527f4d616769637377617056323a20494e53554646494349454e545f4f555450555460448201526617d05353d5539560ca1b606482015260840161058c565b600080610611610b10565b5091509150816001600160701b0316871080156106365750806001600160701b031686105b61068e5760405162461bcd60e51b815260206004820152602360248201527f4d616769637377617056323a20494e53554646494349454e545f4c495155494460448201526249545960e81b606482015260840161058c565b60075460085460009182916001600160a01b039182169190811690891682148015906106cc5750806001600160a01b0316896001600160a01b031614155b6107185760405162461bcd60e51b815260206004820152601760248201527f4d616769637377617056323a20494e56414c49445f544f000000000000000000604482015260640161058c565b8a1561072957610729828a8d6118a4565b891561073a5761073a818a8c6118a4565b86156107a7576040516304347a1760e21b81526001600160a01b038a16906310d1e85c906107749033908f908f908e908e90600401612ea1565b600060405180830381600087803b15801561078e57600080fd5b505af11580156107a2573d6000803e3d6000fd5b505050505b6040516370a0823160e01b81523060048201526001600160a01b038316906370a0823190602401602060405180830381865afa1580156107eb573d6000803e3d6000fd5b505050506040513d601f19601f8201168201806040525081019061080f9190612eed565b6040516370a0823160e01b81523060048201529094506001600160a01b038216906370a0823190602401602060405180830381865afa158015610856573d6000803e3d6000fd5b505050506040513d601f19601f8201168201806040525081019061087a9190612eed565b92505050600089856001600160701b03166108959190612f1c565b83116108a25760006108bf565b6108b58a6001600160701b038716612f1c565b6108bf9084612f1c565b905060006108d68a6001600160701b038716612f1c565b83116108e3576000610900565b6108f68a6001600160701b038716612f1c565b6109009084612f1c565b905060008211806109115750600081115b61096c5760405162461bcd60e51b815260206004820152602660248201527f4d616769637377617056323a20494e53554646494349454e545f494e5055545f604482015265105353d5539560d21b606482015260840161058c565b600654604051631184650760e31b81523060048201526000916001600160a01b031690638c23283890602401602060405180830381865afa1580156109b5573d6000803e3d6000fd5b505050506040513d601f19601f820116820180604052508101906109d99190612eed565b905060006109fc6109ea85846119ef565b6109f6886127106119ef565b90611a56565b90506000610a0d6109ea85856119ef565b9050610a3b610a1f6002612710613013565b610a356001600160701b038c8116908c166119ef565b906119ef565b610a4583836119ef565b1015610a845760405162461bcd60e51b815260206004820152600e60248201526d4d616769637377617056323a204b60901b604482015260640161058c565b610a9082828787611aac565b8097508198505050505050610aa784848888611d46565b60408051838152602081018390529081018c9052606081018b90526001600160a01b038a169033907fd78ad95fa46c994b6551d0da85fc275fe613ce37657fb8d5e3d130840159d8229060800160405180910390a3505060016203000955505050505050505050565b6009546001600160701b0380821692600160701b830490911691600160e01b900463ffffffff1690565b6000610b47338484611f1c565b5060015b92915050565b6001600160a01b038316600090815260026020908152604080832033845290915281205460001914610bd0576001600160a01b0384166000908152600260209081526040808320338452909152902054610bab9083611a56565b6001600160a01b03851660009081526002602090815260408083203384529091529020555b610bdb848484611f7e565b5060015b9392505050565b600c8161ffff8110610bf757600080fd5b600302018054600182015460029092015463ffffffff909116925060ff1683565b6203000954600114610c3c5760405162461bcd60e51b815260040161058c90612e74565b600062030009819055600b54640100000000900461ffff1690610c61600c8385612024565b600b805461ffff808416640100000000810265ffff000000001990931692909217909255919250831614610cce576040805161ffff8085168252831660208201527fac49e518f90a358f652e4400164f05a5d8f7e35e7747279bc3a93dbf584e125a910160405180910390a15b50506001620300095550565b6006546001600160a01b03163314610d2d5760405162461bcd60e51b815260206004820152601660248201527526b0b3b4b1b9bbb0b82b191d102327a92124a22222a760511b604482015260640161058c565b600780546001600160a01b038085166001600160a01b0319928316811790935560088054918516919092161790556040805163313ce56760e01b8152905163313ce567916004808201926020929091908290030181865afa158015610d96573d6000803e3d6000fd5b505050506040513d601f19601f82011682018060405250810190610dba9190613022565b60ff1660055550506040805160608101825263ffffffff4216808252600060208301819052600192909301829052600c805463ffffffff19169091179055600d91909155600e805460ff19169091179055600b805465ffffffffffff1916640100010000179055565b60006203000954600114610e495760405162461bcd60e51b815260040161058c90612e74565b60006203000981905580610e5b610b10565b506007546040516370a0823160e01b81523060048201529294509092506000916001600160a01b03909116906370a0823190602401602060405180830381865afa158015610ead573d6000803e3d6000fd5b505050506040513d601f19601f82011682018060405250810190610ed19190612eed565b6008546040516370a0823160e01b81523060048201529192506000916001600160a01b03909116906370a0823190602401602060405180830381865afa158015610f1f573d6000803e3d6000fd5b505050506040513d601f19601f82011682018060405250810190610f439190612eed565b90506000610f5a836001600160701b038716611a56565b90506000610f71836001600160701b038716611a56565b60008054919250819003610fab57610f976103e86109f6610f9286866119ef565b6120d5565b9750610fa660006103e8612145565b610ff2565b610fef6001600160701b038816610fc285846119ef565b610fcc9190613055565b6001600160701b038816610fe085856119ef565b610fea9190613055565b6121d4565b97505b600088116110555760405162461bcd60e51b815260206004820152602a60248201527f4d616769637377617056323a20494e53554646494349454e545f4c495155494460448201526912551657d3525395115160b21b606482015260840161058c565b61105f8989612145565b61106b85858989611d46565b604080518481526020810184905233917f4c209b5fc8ad50758f13e2e1088ba56a560dff690a1c6fef26394f4c03821c4f910160405180910390a2505060016203000955509395945050505050565b6060610bdf4284848080602002602001604051908101604052809392919081815260200183836020028082843760009201919091525050600a54600b54600c9594935090915061ffff80821691620100009004166121ea565b600080620300095460011461113a5760405162461bcd60e51b815260040161058c90612e74565b6000620300098190558061114c610b10565b506007546008546040516370a0823160e01b81523060048201529395509193506001600160a01b039081169291169060009083906370a0823190602401602060405180830381865afa1580156111a6573d6000803e3d6000fd5b505050506040513d601f19601f820116820180604052508101906111ca9190612eed565b6040516370a0823160e01b81523060048201529091506000906001600160a01b038416906370a0823190602401602060405180830381865afa158015611214573d6000803e3d6000fd5b505050506040513d601f19601f820116820180604052508101906112389190612eed565b306000908152600160205260408120549054919250908061125983866119ef565b6112639190613055565b99508061127083856119ef565b61127a9190613055565b985060008a11801561128c5750600089115b6112eb5760405162461bcd60e51b815260206004820152602a60248201527f4d616769637377617056323a20494e53554646494349454e545f4c495155494460448201526912551657d0955493915160b21b606482015260840161058c565b6112f530836122d7565b611300868c8c6118a4565b61130b858c8b6118a4565b6040516370a0823160e01b81523060048201526001600160a01b038716906370a0823190602401602060405180830381865afa15801561134f573d6000803e3d6000fd5b505050506040513d601f19601f820116820180604052508101906113739190612eed565b6040516370a0823160e01b81523060048201529094506001600160a01b038616906370a0823190602401602060405180830381865afa1580156113ba573d6000803e3d6000fd5b505050506040513d601f19601f820116820180604052508101906113de9190612eed565b92506113ec84848a8a611d46565b604080518b8152602081018b90526001600160a01b038d169133917fdccd412f0b1252819cb1fd330b93224ca42612892bb3f4f789976e6d81936496910160405180910390a3505050505050505060016203000981905550915091565b6000610b47338484611f7e565b620300095460011461147a5760405162461bcd60e51b815260040161058c90612e74565b600062030009556007546008546009546040516370a0823160e01b81523060048201526001600160a01b0393841693909216916115179184918691611512916001600160701b039091169084906370a08231906024015b602060405180830381865afa1580156114ee573d6000803e3d6000fd5b505050506040513d601f19601f820116820180604052508101906109f69190612eed565b6118a4565b6009546040516370a0823160e01b8152306004820152610cce918391869161151291600160701b9091046001600160701b0316906001600160a01b038516906370a08231906024016114d1565b428410156115ab5760405162461bcd60e51b8152602060048201526014602482015273135859da58dcddd85c158c8e881156141254915160621b604482015260640161058c565b6003546001600160a01b038816600090815260046020526040812080549192917f6e71edae12b1b97f4d1f60370fef10105fa2faae0126114a169c64845d6126c9918b918b918b9190876115fe83613069565b909155506040805160208101969096526001600160a01b0394851690860152929091166060840152608083015260a082015260c0810187905260e0016040516020818303038152906040528051906020012060405160200161167792919061190160f01b81526002810192909252602282015260420190565b60408051601f198184030181528282528051602091820120600080855291840180845281905260ff88169284019290925260608301869052608083018590529092509060019060a0016020604051602081039080840390855afa1580156116e2573d6000803e3d6000fd5b5050604051601f1901519150506001600160a01b038116158015906117185750886001600160a01b0316816001600160a01b0316145b6117645760405162461bcd60e51b815260206004820152601e60248201527f4d616769637377617056323a20494e56414c49445f5349474e41545552450000604482015260640161058c565b61176f898989611f1c565b505050505050505050565b620300095460011461179e5760405162461bcd60e51b815260040161058c90612e74565b600062030009556007546040516370a0823160e01b815230600482015261189b916001600160a01b0316906370a0823190602401602060405180830381865afa1580156117ef573d6000803e3d6000fd5b505050506040513d601f19601f820116820180604052508101906118139190612eed565b6008546040516370a0823160e01b81523060048201526001600160a01b03909116906370a0823190602401602060405180830381865afa15801561185b573d6000803e3d6000fd5b505050506040513d601f19601f8201168201806040525081019061187f9190612eed565b6009546001600160701b0380821691600160701b900416611d46565b60016203000955565b604080518082018252601981527f7472616e7366657228616464726573732c75696e74323536290000000000000060209182015281516001600160a01b0385811660248301526044808301869052845180840390910181526064909201845291810180516001600160e01b031663a9059cbb60e01b179052915160009283928716916119309190613082565b6000604051808303816000865af19150503d806000811461196d576040519150601f19603f3d011682016040523d82523d6000602084013e611972565b606091505b509150915081801561199c57508051158061199c57508080602001905181019061199c919061309e565b6119e85760405162461bcd60e51b815260206004820152601c60248201527f4d616769637377617056323a205452414e534645525f4641494c454400000000604482015260640161058c565b5050505050565b6000811580611a1357508282611a0581836130c0565b9250611a119083613055565b145b610b4b5760405162461bcd60e51b815260206004820152601460248201527364732d6d6174682d6d756c2d6f766572666c6f7760601b604482015260640161058c565b600082611a638382612f1c565b9150811115610b4b5760405162461bcd60e51b815260206004820152601560248201527464732d6d6174682d7375622d756e646572666c6f7760581b604482015260640161058c565b600654604051634ec1b53760e11b8152306004820152600091829182918291829182916001600160a01b0390911690639d836a6e9060240160a060405180830381865afa158015611b01573d6000803e3d6000fd5b505050506040513d601f19601f82011682018060405250810190611b2591906130d7565b60075460085494995092975090955093506001600160a01b03908116925016818a8a15611b525750819050895b600081118015611b625750600087115b15611b8357611b838289612710611b798b866130c0565b6115129190613055565b600081118015611b935750600085115b15611baa57611baa8287612710611b7989866130c0565b6040516370a0823160e01b81523060048201526001600160a01b038516906370a0823190602401602060405180830381865afa158015611bee573d6000803e3d6000fd5b505050506040513d601f19601f82011682018060405250810190611c129190612eed565b6040516370a0823160e01b8152306004820152909a506001600160a01b038416906370a0823190602401602060405180830381865afa158015611c59573d6000803e3d6000fd5b505050506040513d601f19601f82011682018060405250810190611c7d9190612eed565b9850611c8b6127108f613055565b8a1015611cda5760405162461bcd60e51b815260206004820152601d60248201527f4d616769637377617056323a2062616c616e63653041646a7573746564000000604482015260640161058c565b611ce66127108e613055565b891015611d355760405162461bcd60e51b815260206004820152601d60248201527f4d616769637377617056323a2062616c616e63653141646a7573746564000000604482015260640161058c565b505050505050505094509492505050565b6001600160701b038411801590611d6457506001600160701b038311155b611da85760405162461bcd60e51b81526020600482015260156024820152744d616769637377617056323a204f564552464c4f5760581b604482015260640161058c565b60095463ffffffff42811691600160e01b90048116820390811615801590611dd857506001600160701b03841615155b8015611dec57506001600160701b03831615155b15611e8457836001600160701b0316836001600160701b0316600554600a611e14919061312e565b611e1e91906130c0565b611e289190613055565b600a55600b54611e5d9061ffff1642600a54600b54600c9392919061ffff620100008204811691640100000000900416612361565b600b805463ffffffff19166201000061ffff9384160261ffff191617929091169190911790555b6009805463ffffffff8416600160e01b026001600160e01b036001600160701b03898116600160701b9081026001600160e01b03199095168c83161794909417918216831794859055604080519382169282169290921783529290930490911660208201527f1c411e9a96e071241c2f21f7726b17ae89e3cab4c78be50e062b03a9fffbbad1910160405180910390a1505050505050565b6001600160a01b0383811660008181526002602090815260408083209487168084529482529182902085905590518481527f8c5be1e5ebec7d5bd14f71427d1e84f3dd0314c0f7b2291e5b200ac8c7c3b92591015b60405180910390a3505050565b6001600160a01b038316600090815260016020526040902054611fa19082611a56565b6001600160a01b038085166000908152600160205260408082209390935590841681522054611fd09082612499565b6001600160a01b0380841660008181526001602052604090819020939093559151908516907fddf252ad1be2c89b69c2b068fc378daa952ba7f163c4a11628f55a4df523b3ef90611f719085815260200190565b6000808361ffff161161205d5760405162461bcd60e51b81526020600482015260016024820152604960f81b604482015260640161058c565b8261ffff168261ffff1611612073575081610bdf565b825b8261ffff168161ffff1610156120cc576001858261ffff1661ffff811061209e5761209e61313a565b60030201805463ffffffff191663ffffffff92909216919091179055806120c481613150565b915050612075565b50909392505050565b6000600382111561213657508060006120ef600283613055565b6120fa906001613171565b90505b81811015612130579050806002816121158186613055565b61211f9190613171565b6121299190613055565b90506120fd565b50919050565b8115612140575060015b919050565b6000546121529082612499565b60009081556001600160a01b0383168152600160205260409020546121779082612499565b6001600160a01b0383166000818152600160205260408082209390935591519091907fddf252ad1be2c89b69c2b068fc378daa952ba7f163c4a11628f55a4df523b3ef906121c89085815260200190565b60405180910390a35050565b60008183106121e35781610bdf565b5090919050565b606060008261ffff16116122245760405162461bcd60e51b81526020600482015260016024820152604960f81b604482015260640161058c565b845167ffffffffffffffff81111561223e5761223e613184565b604051908082528060200260200182016040528015612267578160200160208202803683370190505b50905060005b85518110156122cc5761229d888888848151811061228d5761228d61313a565b60200260200101518888886124ee565b8282815181106122af576122af61313a565b6020908102919091010152806122c481613069565b91505061226d565b509695505050505050565b6001600160a01b0382166000908152600160205260409020546122fa9082611a56565b6001600160a01b038316600090815260016020526040812091909155546123219082611a56565b60009081556040518281526001600160a01b038416907fddf252ad1be2c89b69c2b068fc378daa952ba7f163c4a11628f55a4df523b3ef906020016121c8565b6000806000888861ffff1661ffff811061237d5761237d61313a565b6040805160608101825260039290920292909201805463ffffffff9081168084526001830154602085015260029092015460ff1615159383019390935290925090881690036123d2578785925092505061248e565b8461ffff168461ffff161180156123fa57506123ef60018661319a565b61ffff168861ffff16145b156124075783915061240b565b8491505b816124178960016131bc565b61242191906131d7565b925061242e818888612660565b898461ffff1661ffff81106124455761244561313a565b825160039190910291909101805463ffffffff191663ffffffff909216919091178155602082015160018201556040909101516002909101805460ff1916911515919091179055505b965096945050505050565b6000826124a68382613171565b9150811015610b4b5760405162461bcd60e51b815260206004820152601460248201527364732d6d6174682d6164642d6f766572666c6f7760601b604482015260640161058c565b60008463ffffffff16600003612578576000878461ffff1661ffff81106125175761251761313a565b6040805160608101825260039290920292909201805463ffffffff9081168084526001830154602085015260029092015460ff161515938301939093529092509088161461256d5761256a818887612660565b90505b602001519050612656565b600061258486886131f8565b90506000806125978a8a858a8a8a6126d9565b91509150816000015163ffffffff168363ffffffff16036125c057506020015191506126569050565b806000015163ffffffff168363ffffffff16036125e557602001519250612656915050565b815181516000916125f5916131f8565b835190915060009061260790866131f8565b90508063ffffffff168263ffffffff168560200151856020015161262b9190612f1c565b6126359190613055565b61263f91906130c0565b846020015161264e9190613171565b955050505050505b9695505050505050565b6040805160608101825260008082526020820181905291810191909152835160009061268c90856131f8565b905060405180606001604052808563ffffffff1681526020018263ffffffff16856126b791906130c0565b87602001516126c69190613171565b8152600160209091015295945050505050565b60408051606081018252600080825260208201819052918101919091526040805160608101825260008082526020820181905291810191909152878461ffff1661ffff811061272a5761272a61313a565b6040805160608101825260039290920292909201805463ffffffff168083526001820154602084015260029091015460ff16151592820192909252925061277390889088612896565b1561279e57815163ffffffff87811691161461248e5781612795838888612660565b9150915061248e565b87836127ab8660016131bc565b6127b591906131d7565b61ffff1661ffff81106127ca576127ca61313a565b6040805160608101825260039290920292909201805463ffffffff168252600181015460208301526002015460ff16151591810182905292506128395760408051606081018252895463ffffffff16815260018a0154602082015260028a015460ff1615159181019190915291505b61284887836000015188612896565b61287a5760405162461bcd60e51b815260206004820152600360248201526213d31160ea1b604482015260640161058c565b6128878888888787612967565b91509150965096945050505050565b60008363ffffffff168363ffffffff16111580156128c057508363ffffffff168263ffffffff1611155b156128dc578163ffffffff168363ffffffff1611159050610bdf565b60008463ffffffff168463ffffffff161161290b5761290663ffffffff8516640100000000613215565b612913565b8363ffffffff165b64ffffffffff16905060008563ffffffff168463ffffffff161161294b5761294663ffffffff8516640100000000613215565b612953565b8363ffffffff165b64ffffffffff169091111595945050505050565b6040805160608082018352600080835260208084018290528385018290528451928301855281835282018190529281018390529091836129a88660016131bc565b6129b291906131d7565b61ffff169050600060018561ffff16836129cc9190613171565b6129d69190612f1c565b905060005b60026129e78385613171565b6129f19190613055565b905089612a0261ffff881683613233565b61ffff8110612a1357612a1361313a565b6040805160608101825260039290920292909201805463ffffffff168252600181015460208301526002015460ff1615159181018290529550612a6257612a5b816001613171565b92506129db565b8961ffff8716612a73836001613171565b612a7d9190613233565b61ffff8110612a8e57612a8e61313a565b6040805160608101825260039290920292909201805463ffffffff168252600181015460208301526002015460ff161515918101919091528551909450600090612ada908b908b612896565b9050808015612af35750612af38a8a8760000151612896565b15612afe5750612b29565b80612b1557612b0e600183612f1c565b9250612b23565b612b20826001613171565b93505b506129db565b5050509550959350505050565b6001600160a01b0381168114612b4b57600080fd5b50565b600080600080600060808688031215612b6657600080fd5b85359450602086013593506040860135612b7f81612b36565b9250606086013567ffffffffffffffff80821115612b9c57600080fd5b818801915088601f830112612bb057600080fd5b813581811115612bbf57600080fd5b896020828501011115612bd157600080fd5b9699959850939650602001949392505050565b60005b83811015612bff578181015183820152602001612be7565b50506000910152565b6020815260008251806020840152612c27816040850160208701612be4565b601f01601f19169190910160400192915050565b60008060408385031215612c4e57600080fd5b8235612c5981612b36565b946020939093013593505050565b600080600060608486031215612c7c57600080fd5b8335612c8781612b36565b92506020840135612c9781612b36565b929592945050506040919091013590565b600060208284031215612cba57600080fd5b5035919050565b600060208284031215612cd357600080fd5b813561ffff81168114610bdf57600080fd5b60008060408385031215612cf857600080fd5b8235612d0381612b36565b91506020830135612d1381612b36565b809150509250929050565b600060208284031215612d3057600080fd5b8135610bdf81612b36565b60008060208385031215612d4e57600080fd5b823567ffffffffffffffff80821115612d6657600080fd5b818501915085601f830112612d7a57600080fd5b813581811115612d8957600080fd5b8660208260051b8501011115612d9e57600080fd5b60209290920196919550909350505050565b6020808252825182820181905260009190848201906040850190845b81811015612de857835183529284019291840191600101612dcc565b50909695505050505050565b60ff81168114612b4b57600080fd5b600080600080600080600060e0888a031215612e1e57600080fd5b8735612e2981612b36565b96506020880135612e3981612b36565b955060408801359450606088013593506080880135612e5781612df4565b9699959850939692959460a0840135945060c09093013592915050565b602080825260139082015272135859da58dcddd85c158c8e881313d0d2d151606a1b604082015260600190565b60018060a01b038616815284602082015283604082015260806060820152816080820152818360a0830137600081830160a090810191909152601f909201601f19160101949350505050565b600060208284031215612eff57600080fd5b5051919050565b634e487b7160e01b600052601160045260246000fd5b81810381811115610b4b57610b4b612f06565b600181815b80851115612f6a578160001904821115612f5057612f50612f06565b80851615612f5d57918102915b93841c9390800290612f34565b509250929050565b600082612f8157506001610b4b565b81612f8e57506000610b4b565b8160018114612fa45760028114612fae57612fca565b6001915050610b4b565b60ff841115612fbf57612fbf612f06565b50506001821b610b4b565b5060208310610133831016604e8410600b8410161715612fed575081810a610b4b565b612ff78383612f2f565b806000190482111561300b5761300b612f06565b029392505050565b6000610bdf60ff841683612f72565b60006020828403121561303457600080fd5b8151610bdf81612df4565b634e487b7160e01b600052601260045260246000fd5b6000826130645761306461303f565b500490565b60006001820161307b5761307b612f06565b5060010190565b60008251613094818460208701612be4565b9190910192915050565b6000602082840312156130b057600080fd5b81518015158114610bdf57600080fd5b8082028115828204841417610b4b57610b4b612f06565b600080600080600060a086880312156130ef57600080fd5b85519450602086015161310181612b36565b60408701516060880151919550935061311981612b36565b80925050608086015190509295509295909350565b6000610bdf8383612f72565b634e487b7160e01b600052603260045260246000fd5b600061ffff80831681810361316757613167612f06565b6001019392505050565b80820180821115610b4b57610b4b612f06565b634e487b7160e01b600052604160045260246000fd5b61ffff8281168282160390808211156131b5576131b5612f06565b5092915050565b61ffff8181168382160190808211156131b5576131b5612f06565b600061ffff808416806131ec576131ec61303f565b92169190910692915050565b63ffffffff8281168282160390808211156131b5576131b5612f06565b64ffffffffff8181168382160190808211156131b5576131b5612f06565b6000826132425761324261303f565b50069056fea2646970667358221220f4e225594276795b70858d627d1bcf466436ef8a13fb3777c46ee304a7080de564736f6c63430008130033",
    "linkReferences": {}
  },
  "methodIdentifiers": {
    "BASIS_POINTS()": "e1f1c4a7",
    "DOMAIN_SEPARATOR()": "3644e515",
    "MINIMUM_LIQUIDITY()": "ba9a7a56",
    "PERMIT_TYPEHASH()": "30adf81f",
    "TOKEN0_DECIMALS()": "4f1a4708",
    "allowance(address,address)": "dd62ed3e",
    "approve(address,uint256)": "095ea7b3",
    "balanceOf(address)": "70a08231",
    "burn(address)": "89afcb44",
    "decimals()": "313ce567",
    "factory()": "c45a0155",
    "getReserves()": "0902f1ac",
    "increaseObservationCardinalityNext(uint16)": "32148f67",
    "initialize(address,address)": "485cc955",
    "lastPrice()": "053f14da",
    "mint(address)": "6a627842",
    "name()": "06fdde03",
    "nonces(address)": "7ecebe00",
    "observationCardinality()": "2b8e0666",
    "observationCardinalityNext()": "aab5497c",
    "observationIndex()": "d6cf0c37",
    "observations(uint256)": "252c09d7",
    "observe(uint32[])": "883bdbfd",
    "permit(address,address,uint256,uint256,uint8,bytes32,bytes32)": "d505accf",
    "skim(address)": "bc25cf77",
    "swap(uint256,uint256,address,bytes)": "022c0d9f",
    "symbol()": "95d89b41",
    "sync()": "fff6cae9",
    "token0()": "0dfe1681",
    "token1()": "d21220a7",
    "totalSupply()": "18160ddd",
    "transfer(address,uint256)": "a9059cbb",
    "transferFrom(address,address,uint256)": "23b872dd"
  },
  "id": 62
}