{
  "abi": [
    {
      "inputs": [
        {
          "internalType": "uint256",
          "name": "_defaultProtocolFee",
          "type": "uint256"
        },
        {
          "internalType": "uint256",
          "name": "_defaultLpFee",
          "type": "uint256"
        },
        {
          "internalType": "address",
          "name": "_protocolFeeBeneficiary",
          "type": "address"
        }
      ],
      "stateMutability": "nonpayable",
      "type": "constructor"
    },
    {
      "anonymous": false,
      "inputs": [
        {
          "indexed": true,
          "internalType": "address",
          "name": "previousOwner",
          "type": "address"
        },
        {
          "indexed": true,
          "internalType": "address",
          "name": "newOwner",
          "type": "address"
        }
      ],
      "name": "OwnershipTransferStarted",
      "type": "event"
    },
    {
      "anonymous": false,
      "inputs": [
        {
          "indexed": true,
          "internalType": "address",
          "name": "previousOwner",
          "type": "address"
        },
        {
          "indexed": true,
          "internalType": "address",
          "name": "newOwner",
          "type": "address"
        }
      ],
      "name": "OwnershipTransferred",
      "type": "event"
    },
    {
      "anonymous": false,
      "inputs": [
        {
          "indexed": true,
          "internalType": "address",
          "name": "token0",
          "type": "address"
        },
        {
          "indexed": true,
          "internalType": "address",
          "name": "token1",
          "type": "address"
        },
        {
          "indexed": false,
          "internalType": "address",
          "name": "pair",
          "type": "address"
        },
        {
          "indexed": false,
          "internalType": "uint256",
          "name": "",
          "type": "uint256"
        }
      ],
      "name": "PairCreated",
      "type": "event"
    },
    {
      "inputs": [],
      "name": "MAX_FEE",
      "outputs": [
        {
          "internalType": "uint256",
          "name": "",
          "type": "uint256"
        }
      ],
      "stateMutability": "view",
      "type": "function"
    },
    {
      "inputs": [],
      "name": "acceptOwnership",
      "outputs": [],
      "stateMutability": "nonpayable",
      "type": "function"
    },
    {
      "inputs": [
        {
          "internalType": "uint256",
          "name": "",
          "type": "uint256"
        }
      ],
      "name": "allPairs",
      "outputs": [
        {
          "internalType": "address",
          "name": "",
          "type": "address"
        }
      ],
      "stateMutability": "view",
      "type": "function"
    },
    {
      "inputs": [],
      "name": "allPairsLength",
      "outputs": [
        {
          "internalType": "uint256",
          "name": "",
          "type": "uint256"
        }
      ],
      "stateMutability": "view",
      "type": "function"
    },
    {
      "inputs": [
        {
          "internalType": "address",
          "name": "tokenA",
          "type": "address"
        },
        {
          "internalType": "address",
          "name": "tokenB",
          "type": "address"
        }
      ],
      "name": "createPair",
      "outputs": [
        {
          "internalType": "address",
          "name": "pair",
          "type": "address"
        }
      ],
      "stateMutability": "nonpayable",
      "type": "function"
    },
    {
      "inputs": [],
      "name": "defaultFees",
      "outputs": [
        {
          "internalType": "address",
          "name": "royaltiesBeneficiary",
          "type": "address"
        },
        {
          "internalType": "uint256",
          "name": "royaltiesFee",
          "type": "uint256"
        },
        {
          "internalType": "uint256",
          "name": "protocolFee",
          "type": "uint256"
        },
        {
          "internalType": "uint256",
          "name": "lpFee",
          "type": "uint256"
        }
      ],
      "stateMutability": "view",
      "type": "function"
    },
    {
      "inputs": [
        {
          "internalType": "address",
          "name": "_pair",
          "type": "address"
        }
      ],
      "name": "getFees",
      "outputs": [
        {
          "internalType": "uint256",
          "name": "lpFee",
          "type": "uint256"
        },
        {
          "internalType": "uint256",
          "name": "royaltiesFee",
          "type": "uint256"
        },
        {
          "internalType": "uint256",
          "name": "protocolFee",
          "type": "uint256"
        }
      ],
      "stateMutability": "view",
      "type": "function"
    },
    {
      "inputs": [
        {
          "internalType": "address",
          "name": "_pair",
          "type": "address"
        }
      ],
      "name": "getFeesAndRecipients",
      "outputs": [
        {
          "internalType": "uint256",
          "name": "lpFee",
          "type": "uint256"
        },
        {
          "internalType": "address",
          "name": "royaltiesBeneficiary",
          "type": "address"
        },
        {
          "internalType": "uint256",
          "name": "royaltiesFee",
          "type": "uint256"
        },
        {
          "internalType": "address",
          "name": "protocolBeneficiary",
          "type": "address"
        },
        {
          "internalType": "uint256",
          "name": "protocolFee",
          "type": "uint256"
        }
      ],
      "stateMutability": "view",
      "type": "function"
    },
    {
      "inputs": [
        {
          "internalType": "address",
          "name": "",
          "type": "address"
        },
        {
          "internalType": "address",
          "name": "",
          "type": "address"
        }
      ],
      "name": "getPair",
      "outputs": [
        {
          "internalType": "address",
          "name": "",
          "type": "address"
        }
      ],
      "stateMutability": "view",
      "type": "function"
    },
    {
      "inputs": [
        {
          "internalType": "address",
          "name": "_pair",
          "type": "address"
        }
      ],
      "name": "getTotalFee",
      "outputs": [
        {
          "internalType": "uint256",
          "name": "",
          "type": "uint256"
        }
      ],
      "stateMutability": "view",
      "type": "function"
    },
    {
      "inputs": [],
      "name": "owner",
      "outputs": [
        {
          "internalType": "address",
          "name": "",
          "type": "address"
        }
      ],
      "stateMutability": "view",
      "type": "function"
    },
    {
      "inputs": [
        {
          "internalType": "address",
          "name": "",
          "type": "address"
        }
      ],
      "name": "pairFees",
      "outputs": [
        {
          "internalType": "address",
          "name": "royaltiesBeneficiary",
          "type": "address"
        },
        {
          "internalType": "uint256",
          "name": "royaltiesFee",
          "type": "uint256"
        },
        {
          "internalType": "uint256",
          "name": "protocolFee",
          "type": "uint256"
        },
        {
          "internalType": "uint256",
          "name": "lpFee",
          "type": "uint256"
        }
      ],
      "stateMutability": "view",
      "type": "function"
    },
    {
      "inputs": [],
      "name": "pendingOwner",
      "outputs": [
        {
          "internalType": "address",
          "name": "",
          "type": "address"
        }
      ],
      "stateMutability": "view",
      "type": "function"
    },
    {
      "inputs": [],
      "name": "protocolFeeBeneficiary",
      "outputs": [
        {
          "internalType": "address",
          "name": "",
          "type": "address"
        }
      ],
      "stateMutability": "view",
      "type": "function"
    },
    {
      "inputs": [],
      "name": "renounceOwnership",
      "outputs": [],
      "stateMutability": "nonpayable",
      "type": "function"
    },
    {
      "inputs": [
        {
          "components": [
            {
              "internalType": "address",
              "name": "royaltiesBeneficiary",
              "type": "address"
            },
            {
              "internalType": "uint256",
              "name": "royaltiesFee",
              "type": "uint256"
            },
            {
              "internalType": "uint256",
              "name": "protocolFee",
              "type": "uint256"
            },
            {
              "internalType": "uint256",
              "name": "lpFee",
              "type": "uint256"
            }
          ],
          "internalType": "struct IUniswapV2Factory.Fees",
          "name": "_fees",
          "type": "tuple"
        }
      ],
      "name": "setDefaultFees",
      "outputs": [],
      "stateMutability": "nonpayable",
      "type": "function"
    },
    {
      "inputs": [
        {
          "internalType": "address",
          "name": "_pair",
          "type": "address"
        },
        {
          "internalType": "uint256",
          "name": "_lpFee",
          "type": "uint256"
        }
      ],
      "name": "setLpFee",
      "outputs": [],
      "stateMutability": "nonpayable",
      "type": "function"
    },
    {
      "inputs": [
        {
          "internalType": "address",
          "name": "_pair",
          "type": "address"
        },
        {
          "internalType": "uint256",
          "name": "_protocolFee",
          "type": "uint256"
        }
      ],
      "name": "setProtocolFee",
      "outputs": [],
      "stateMutability": "nonpayable",
      "type": "function"
    },
    {
      "inputs": [
        {
          "internalType": "address",
          "name": "_beneficiary",
          "type": "address"
        }
      ],
      "name": "setProtocolFeeBeneficiary",
      "outputs": [],
      "stateMutability": "nonpayable",
      "type": "function"
    },
    {
      "inputs": [
        {
          "internalType": "address",
          "name": "_pair",
          "type": "address"
        },
        {
          "internalType": "address",
          "name": "_beneficiary",
          "type": "address"
        },
        {
          "internalType": "uint256",
          "name": "_royaltiesFee",
          "type": "uint256"
        }
      ],
      "name": "setRoyaltiesFee",
      "outputs": [],
      "stateMutability": "nonpayable",
      "type": "function"
    },
    {
      "inputs": [
        {
          "internalType": "address",
          "name": "newOwner",
          "type": "address"
        }
      ],
      "name": "transferOwnership",
      "outputs": [],
      "stateMutability": "nonpayable",
      "type": "function"
    }
  ],
  "bytecode": {
    "object": "0x60806040523480156200001157600080fd5b50604051620047013803806200470183398101604081905262000034916200034f565b6200003f3362000080565b6040805160808101825260008082526020820152908101849052606081018390526200006b816200009e565b62000076826200021d565b50505050620003bf565b600180546001600160a01b03191690556200009b81620002a1565b50565b620000a8620002f1565b611388816040015111156200010f5760405162461bcd60e51b815260206004820152602260248201527f4d616769637377617056323a2070726f746f636f6c466565203e204d41585f46604482015261454560f01b60648201526084015b60405180910390fd5b61138881606001511115620001675760405162461bcd60e51b815260206004820152601c60248201527f4d616769637377617056323a206c70466565203e204d41585f46454500000000604482015260640162000106565b6113888160600151826040015162000180919062000397565b1115620001e35760405162461bcd60e51b815260206004820152602a60248201527f4d616769637377617056323a2070726f746f636f6c466565202b206c70466565604482015269203e204d41585f46454560b01b606482015260840162000106565b8051600580546001600160a01b0319166001600160a01b039092169190911790556020810151600655604081015160075560600151600855565b62000227620002f1565b6001600160a01b0381166200027f5760405162461bcd60e51b815260206004820152601860248201527f4d616769637377617056323a2042454e45464943494152590000000000000000604482015260640162000106565b600280546001600160a01b0319166001600160a01b0392909216919091179055565b600080546001600160a01b038381166001600160a01b0319831681178455604051919092169283917f8be0079c531659141344cd1fd0a4f28419497f9722a3daafe3b4186f6b6457e09190a35050565b6000546001600160a01b031633146200034d5760405162461bcd60e51b815260206004820181905260248201527f4f776e61626c653a2063616c6c6572206973206e6f7420746865206f776e6572604482015260640162000106565b565b6000806000606084860312156200036557600080fd5b83516020850151604086015191945092506001600160a01b03811681146200038c57600080fd5b809150509250925092565b80820180821115620003b957634e487b7160e01b600052601160045260246000fd5b92915050565b61433280620003cf6000396000f3fe608060405234801561001057600080fd5b50600436106101375760003560e01c80639af608c9116100b8578063c9c653961161007c578063c9c6539614610304578063c9e5797514610317578063ceb80df21461032a578063e30c39781461033d578063e6a439051461034e578063f2fde38b1461038257600080fd5b80639af608c9146102625780639d836a6e14610290578063ab8af1a9146102d5578063b5b3ca2c146102e8578063bc063e1a146102fb57600080fd5b8063715018a6116100ff578063715018a61461021b57806379ba5097146102235780638c2328381461022b5780638da5cb5b1461023e5780639585b0be1461024f57600080fd5b8063118b48e51461013c5780631e3dd18b1461018a5780634cc25b88146101b5578063574f2ba3146101ca5780636d771c54146101dc575b600080fd5b60055460065460075460085461015b936001600160a01b031692919084565b604080516001600160a01b03909516855260208501939093529183015260608201526080015b60405180910390f35b61019d610198366004610dcd565b610395565b6040516001600160a01b039091168152602001610181565b6101c86101c3366004610dfd565b6103bf565b005b6004545b604051908152602001610181565b61015b6101ea366004610e39565b60096020526000908152604090208054600182015460028301546003909301546001600160a01b0390921692909184565b6101c8610461565b6101c8610475565b6101ce610239366004610e39565b6104ef565b6000546001600160a01b031661019d565b6101c861025d366004610e39565b610523565b610275610270366004610e39565b6105a3565b60408051938452602084019290925290820152606001610181565b6102a361029e366004610e39565b6105bf565b604080519586526001600160a01b0394851660208701528501929092529091166060830152608082015260a001610181565b6101c86102e3366004610e5b565b610603565b6101c86102f6366004610e5b565b61067c565b6101ce61138881565b61019d610312366004610e85565b610701565b6101c8610325366004610eb8565b610a06565b60025461019d906001600160a01b031681565b6001546001600160a01b031661019d565b61019d61035c366004610e85565b60036020908152600092835260408084209091529082529020546001600160a01b031681565b6101c8610390366004610e39565b610b77565b600481815481106103a557600080fd5b6000918252602090912001546001600160a01b0316905081565b6103c7610be8565b61138881111561042a5760405162461bcd60e51b8152602060048201526024808201527f4d616769637377617056323a205f726f79616c74696573466565203e204d41586044820152635f46454560e01b60648201526084015b60405180910390fd5b6001600160a01b0392831660009081526009602052604090208054939092166001600160a01b031990931692909217815560010155565b610469610be8565b6104736000610c42565b565b60015433906001600160a01b031681146104e35760405162461bcd60e51b815260206004820152602960248201527f4f776e61626c6532537465703a2063616c6c6572206973206e6f7420746865206044820152683732bb9037bbb732b960b91b6064820152608401610421565b6104ec81610c42565b50565b6000806000806104fe85610c5b565b91945092509050806105108385610f47565b61051a9190610f47565b95945050505050565b61052b610be8565b6001600160a01b0381166105815760405162461bcd60e51b815260206004820152601860248201527f4d616769637377617056323a2042454e454649434941525900000000000000006044820152606401610421565b600280546001600160a01b0319166001600160a01b0392909216919091179055565b60008060006105b184610c5b565b9250925092505b9193909250565b60008060008060006105d086610c5b565b6001600160a01b03988916600090815260096020526040902054600254939a908a16999298509290911695509350915050565b61060b610be8565b61138881111561065d5760405162461bcd60e51b815260206004820152601d60248201527f4d616769637377617056323a205f6c70466565203e204d41585f4645450000006044820152606401610421565b6001600160a01b03909116600090815260096020526040902060030155565b610684610be8565b6113888111156106e25760405162461bcd60e51b815260206004820152602360248201527f4d616769637377617056323a205f70726f746f636f6c466565203e204d41585f60448201526246454560e81b6064820152608401610421565b6001600160a01b03909116600090815260096020526040902060020155565b6000816001600160a01b0316836001600160a01b0316036107645760405162461bcd60e51b815260206004820181905260248201527f4d616769637377617056323a204944454e544943414c5f4144445245535345536044820152606401610421565b600080836001600160a01b0316856001600160a01b03161061078757838561078a565b84845b90925090506001600160a01b0382166107e55760405162461bcd60e51b815260206004820152601960248201527f4d616769637377617056323a205a45524f5f41444452455353000000000000006044820152606401610421565b6001600160a01b0382811660009081526003602090815260408083208585168452909152902054161561085a5760405162461bcd60e51b815260206004820152601860248201527f4d616769637377617056323a20504149525f45584953545300000000000000006044820152606401610421565b60006040518060200161086c90610dc0565b601f1982820381018352601f9091011660408190526bffffffffffffffffffffffff19606086811b8216602084015285901b166034820152909150600090604801604051602081830303815290604052805190602001209050808251602084016000f560405163485cc95560e01b81526001600160a01b03868116600483015285811660248301529196509086169063485cc95590604401600060405180830381600087803b15801561091e57600080fd5b505af1158015610932573d6000803e3d6000fd5b505050506001600160a01b0384811660008181526003602081815260408084208987168086529083528185208054978d166001600160a01b031998891681179091559383528185208686528352818520805488168517905560048054600181018255958190527f8a35acfbc15ff81a39ae7d344fd709f28e8600b4aa8c65c6b64bfe7fe36bd19b9095018054909716841790965592548351928352908201527f0d3648bd0f6ba80134a33ba9275ac585d9d315f0ad8355cddefde31afa28d0e9910160405180910390a35050505092915050565b610a0e610be8565b61138881604001511115610a6f5760405162461bcd60e51b815260206004820152602260248201527f4d616769637377617056323a2070726f746f636f6c466565203e204d41585f46604482015261454560f01b6064820152608401610421565b61138881606001511115610ac55760405162461bcd60e51b815260206004820152601c60248201527f4d616769637377617056323a206c70466565203e204d41585f464545000000006044820152606401610421565b61138881606001518260400151610adc9190610f47565b1115610b3d5760405162461bcd60e51b815260206004820152602a60248201527f4d616769637377617056323a2070726f746f636f6c466565202b206c70466565604482015269203e204d41585f46454560b01b6064820152608401610421565b8051600580546001600160a01b0319166001600160a01b039092169190911790556020810151600655604081015160075560600151600855565b610b7f610be8565b600180546001600160a01b0383166001600160a01b03199091168117909155610bb06000546001600160a01b031690565b6001600160a01b03167f38d16b8cac22d99fc7c124b9cd0de2d3fa1faef420bfe791d8c362d765e2270060405160405180910390a350565b6000546001600160a01b031633146104735760405162461bcd60e51b815260206004820181905260248201527f4f776e61626c653a2063616c6c6572206973206e6f7420746865206f776e65726044820152606401610421565b600180546001600160a01b03191690556104ec81610d16565b6000806000610c6984610d66565b92506113888310610c845750611388915060009050806105b8565b6001600160a01b0384166000908152600960205260409020600101549150610cae83611388610f60565b8210610cce5782610cc181611388610f60565b60009250925092506105b8565b610cd784610d94565b905081610ce684611388610f60565b610cf09190610f60565b8111156105b85781610d0484611388610f60565b610d0e9190610f60565b929491935050565b600080546001600160a01b038381166001600160a01b0319831681178455604051919092169283917f8be0079c531659141344cd1fd0a4f28419497f9722a3daafe3b4186f6b6457e09190a35050565b6001600160a01b03811660009081526009602052604081206003015490819003610d8f57506008545b919050565b6001600160a01b03811660009081526009602052604081206002015490819003610d8f57505060075490565b61338980610f7483390190565b600060208284031215610ddf57600080fd5b5035919050565b80356001600160a01b0381168114610d8f57600080fd5b600080600060608486031215610e1257600080fd5b610e1b84610de6565b9250610e2960208501610de6565b9150604084013590509250925092565b600060208284031215610e4b57600080fd5b610e5482610de6565b9392505050565b60008060408385031215610e6e57600080fd5b610e7783610de6565b946020939093013593505050565b60008060408385031215610e9857600080fd5b610ea183610de6565b9150610eaf60208401610de6565b90509250929050565b600060808284031215610eca57600080fd5b6040516080810181811067ffffffffffffffff82111715610efb57634e487b7160e01b600052604160045260246000fd5b604052610f0783610de6565b81526020830135602082015260408301356040820152606083013560608201528091505092915050565b634e487b7160e01b600052601160045260246000fd5b80820180821115610f5a57610f5a610f31565b92915050565b81810381811115610f5a57610f5a610f3156fe60806040526001620300095534801561001757600080fd5b50604080518082018252600c81526b26b0b3b4b1b9bbb0b8102b1960a11b6020918201528151808301835260018152603160f81b9082015281517f8b73c3c69bb8fe3d512ecc4cf759cc79239f7b179b0ffacaa9a75d522b39400f818301527fda3ebaaddc6a8bc958033d03ed4b3c5db1d0a3ab0ab4811bd54c6a47b69c207d818401527fc89efdaa54c0f20c7adf612882df0950f5a951637e0307cdcb4c672f298b8bc660608201524660808201523060a0808301919091528351808303909101815260c09091019092528151910120600355600680546001600160a01b0319163317905561327d8061010c6000396000f3fe608060405234801561001057600080fd5b50600436106101fb5760003560e01c80636a6278421161011a578063ba9a7a56116100ad578063d505accf1161007c578063d505accf1461050b578063d6cf0c371461051e578063dd62ed3e1461052c578063e1f1c4a714610557578063fff6cae91461056057600080fd5b8063ba9a7a56146104c9578063bc25cf77146104d2578063c45a0155146104e5578063d21220a7146104f857600080fd5b806389afcb44116100e957806389afcb441461045157806395d89b4114610479578063a9059cbb146104a0578063aab5497c146104b357600080fd5b80636a627842146103de57806370a08231146103f15780637ecebe0014610411578063883bdbfd1461043157600080fd5b8063252c09d71161019257806332148f671161016157806332148f67146103a65780633644e515146103b9578063485cc955146103c25780634f1a4708146103d557600080fd5b8063252c09d7146103075780632b8e06661461033e57806330adf81f14610365578063313ce5671461038c57600080fd5b8063095ea7b3116101ce578063095ea7b31461029d5780630dfe1681146102c057806318160ddd146102eb57806323b872dd146102f457600080fd5b8063022c0d9f14610200578063053f14da1461021557806306fdde03146102315780630902f1ac14610269575b600080fd5b61021361020e366004612b4e565b610568565b005b61021e600a5481565b6040519081526020015b60405180910390f35b61025c6040518060400160405280600c81526020016b26b0b3b4b1b9bbb0b8102b1960a11b81525081565b6040516102289190612c08565b610271610b10565b604080516001600160701b03948516815293909216602084015263ffffffff1690820152606001610228565b6102b06102ab366004612c3b565b610b3a565b6040519015158152602001610228565b6007546102d3906001600160a01b031681565b6040516001600160a01b039091168152602001610228565b61021e60005481565b6102b0610302366004612c67565b610b51565b61031a610315366004612ca8565b610be6565b6040805163ffffffff90941684526020840192909252151590820152606001610228565b600b546103529062010000900461ffff1681565b60405161ffff9091168152602001610228565b61021e7f6e71edae12b1b97f4d1f60370fef10105fa2faae0126114a169c64845d6126c981565b610394601281565b60405160ff9091168152602001610228565b6102136103b4366004612cc1565b610c18565b61021e60035481565b6102136103d0366004612ce5565b610cda565b61021e60055481565b61021e6103ec366004612d1e565b610e23565b61021e6103ff366004612d1e565b60016020526000908152604090205481565b61021e61041f366004612d1e565b60046020526000908152604090205481565b61044461043f366004612d3b565b6110ba565b6040516102289190612db0565b61046461045f366004612d1e565b611113565b60408051928352602083019190915201610228565b61025c6040518060400160405280600881526020016726a0a3a4a196ab1960c11b81525081565b6102b06104ae366004612c3b565b611449565b600b5461035290640100000000900461ffff1681565b61021e6103e881565b6102136104e0366004612d1e565b611456565b6006546102d3906001600160a01b031681565b6008546102d3906001600160a01b031681565b610213610519366004612e03565b611564565b600b546103529061ffff1681565b61021e61053a366004612ce5565b600260209081526000928352604080842090915290825290205481565b61021e61271081565b61021361177a565b62030009546001146105955760405162461bcd60e51b815260040161058c90612e74565b60405180910390fd5b60006203000955841515806105aa5750600084115b6106065760405162461bcd60e51b815260206004820152602760248201527f4d616769637377617056323a20494e53554646494349454e545f4f555450555460448201526617d05353d5539560ca1b606482015260840161058c565b600080610611610b10565b5091509150816001600160701b0316871080156106365750806001600160701b031686105b61068e5760405162461bcd60e51b815260206004820152602360248201527f4d616769637377617056323a20494e53554646494349454e545f4c495155494460448201526249545960e81b606482015260840161058c565b60075460085460009182916001600160a01b039182169190811690891682148015906106cc5750806001600160a01b0316896001600160a01b031614155b6107185760405162461bcd60e51b815260206004820152601760248201527f4d616769637377617056323a20494e56414c49445f544f000000000000000000604482015260640161058c565b8a1561072957610729828a8d6118a4565b891561073a5761073a818a8c6118a4565b86156107a7576040516304347a1760e21b81526001600160a01b038a16906310d1e85c906107749033908f908f908e908e90600401612ea1565b600060405180830381600087803b15801561078e57600080fd5b505af11580156107a2573d6000803e3d6000fd5b505050505b6040516370a0823160e01b81523060048201526001600160a01b038316906370a0823190602401602060405180830381865afa1580156107eb573d6000803e3d6000fd5b505050506040513d601f19601f8201168201806040525081019061080f9190612eed565b6040516370a0823160e01b81523060048201529094506001600160a01b038216906370a0823190602401602060405180830381865afa158015610856573d6000803e3d6000fd5b505050506040513d601f19601f8201168201806040525081019061087a9190612eed565b92505050600089856001600160701b03166108959190612f1c565b83116108a25760006108bf565b6108b58a6001600160701b038716612f1c565b6108bf9084612f1c565b905060006108d68a6001600160701b038716612f1c565b83116108e3576000610900565b6108f68a6001600160701b038716612f1c565b6109009084612f1c565b905060008211806109115750600081115b61096c5760405162461bcd60e51b815260206004820152602660248201527f4d616769637377617056323a20494e53554646494349454e545f494e5055545f604482015265105353d5539560d21b606482015260840161058c565b600654604051631184650760e31b81523060048201526000916001600160a01b031690638c23283890602401602060405180830381865afa1580156109b5573d6000803e3d6000fd5b505050506040513d601f19601f820116820180604052508101906109d99190612eed565b905060006109fc6109ea85846119ef565b6109f6886127106119ef565b90611a56565b90506000610a0d6109ea85856119ef565b9050610a3b610a1f6002612710613013565b610a356001600160701b038c8116908c166119ef565b906119ef565b610a4583836119ef565b1015610a845760405162461bcd60e51b815260206004820152600e60248201526d4d616769637377617056323a204b60901b604482015260640161058c565b610a9082828787611aac565b8097508198505050505050610aa784848888611d46565b60408051838152602081018390529081018c9052606081018b90526001600160a01b038a169033907fd78ad95fa46c994b6551d0da85fc275fe613ce37657fb8d5e3d130840159d8229060800160405180910390a3505060016203000955505050505050505050565b6009546001600160701b0380821692600160701b830490911691600160e01b900463ffffffff1690565b6000610b47338484611f1c565b5060015b92915050565b6001600160a01b038316600090815260026020908152604080832033845290915281205460001914610bd0576001600160a01b0384166000908152600260209081526040808320338452909152902054610bab9083611a56565b6001600160a01b03851660009081526002602090815260408083203384529091529020555b610bdb848484611f7e565b5060015b9392505050565b600c8161ffff8110610bf757600080fd5b600302018054600182015460029092015463ffffffff909116925060ff1683565b6203000954600114610c3c5760405162461bcd60e51b815260040161058c90612e74565b600062030009819055600b54640100000000900461ffff1690610c61600c8385612024565b600b805461ffff808416640100000000810265ffff000000001990931692909217909255919250831614610cce576040805161ffff8085168252831660208201527fac49e518f90a358f652e4400164f05a5d8f7e35e7747279bc3a93dbf584e125a910160405180910390a15b50506001620300095550565b6006546001600160a01b03163314610d2d5760405162461bcd60e51b815260206004820152601660248201527526b0b3b4b1b9bbb0b82b191d102327a92124a22222a760511b604482015260640161058c565b600780546001600160a01b038085166001600160a01b0319928316811790935560088054918516919092161790556040805163313ce56760e01b8152905163313ce567916004808201926020929091908290030181865afa158015610d96573d6000803e3d6000fd5b505050506040513d601f19601f82011682018060405250810190610dba9190613022565b60ff1660055550506040805160608101825263ffffffff4216808252600060208301819052600192909301829052600c805463ffffffff19169091179055600d91909155600e805460ff19169091179055600b805465ffffffffffff1916640100010000179055565b60006203000954600114610e495760405162461bcd60e51b815260040161058c90612e74565b60006203000981905580610e5b610b10565b506007546040516370a0823160e01b81523060048201529294509092506000916001600160a01b03909116906370a0823190602401602060405180830381865afa158015610ead573d6000803e3d6000fd5b505050506040513d601f19601f82011682018060405250810190610ed19190612eed565b6008546040516370a0823160e01b81523060048201529192506000916001600160a01b03909116906370a0823190602401602060405180830381865afa158015610f1f573d6000803e3d6000fd5b505050506040513d601f19601f82011682018060405250810190610f439190612eed565b90506000610f5a836001600160701b038716611a56565b90506000610f71836001600160701b038716611a56565b60008054919250819003610fab57610f976103e86109f6610f9286866119ef565b6120d5565b9750610fa660006103e8612145565b610ff2565b610fef6001600160701b038816610fc285846119ef565b610fcc9190613055565b6001600160701b038816610fe085856119ef565b610fea9190613055565b6121d4565b97505b600088116110555760405162461bcd60e51b815260206004820152602a60248201527f4d616769637377617056323a20494e53554646494349454e545f4c495155494460448201526912551657d3525395115160b21b606482015260840161058c565b61105f8989612145565b61106b85858989611d46565b604080518481526020810184905233917f4c209b5fc8ad50758f13e2e1088ba56a560dff690a1c6fef26394f4c03821c4f910160405180910390a2505060016203000955509395945050505050565b6060610bdf4284848080602002602001604051908101604052809392919081815260200183836020028082843760009201919091525050600a54600b54600c9594935090915061ffff80821691620100009004166121ea565b600080620300095460011461113a5760405162461bcd60e51b815260040161058c90612e74565b6000620300098190558061114c610b10565b506007546008546040516370a0823160e01b81523060048201529395509193506001600160a01b039081169291169060009083906370a0823190602401602060405180830381865afa1580156111a6573d6000803e3d6000fd5b505050506040513d601f19601f820116820180604052508101906111ca9190612eed565b6040516370a0823160e01b81523060048201529091506000906001600160a01b038416906370a0823190602401602060405180830381865afa158015611214573d6000803e3d6000fd5b505050506040513d601f19601f820116820180604052508101906112389190612eed565b306000908152600160205260408120549054919250908061125983866119ef565b6112639190613055565b99508061127083856119ef565b61127a9190613055565b985060008a11801561128c5750600089115b6112eb5760405162461bcd60e51b815260206004820152602a60248201527f4d616769637377617056323a20494e53554646494349454e545f4c495155494460448201526912551657d0955493915160b21b606482015260840161058c565b6112f530836122d7565b611300868c8c6118a4565b61130b858c8b6118a4565b6040516370a0823160e01b81523060048201526001600160a01b038716906370a0823190602401602060405180830381865afa15801561134f573d6000803e3d6000fd5b505050506040513d601f19601f820116820180604052508101906113739190612eed565b6040516370a0823160e01b81523060048201529094506001600160a01b038616906370a0823190602401602060405180830381865afa1580156113ba573d6000803e3d6000fd5b505050506040513d601f19601f820116820180604052508101906113de9190612eed565b92506113ec84848a8a611d46565b604080518b8152602081018b90526001600160a01b038d169133917fdccd412f0b1252819cb1fd330b93224ca42612892bb3f4f789976e6d81936496910160405180910390a3505050505050505060016203000981905550915091565b6000610b47338484611f7e565b620300095460011461147a5760405162461bcd60e51b815260040161058c90612e74565b600062030009556007546008546009546040516370a0823160e01b81523060048201526001600160a01b0393841693909216916115179184918691611512916001600160701b039091169084906370a08231906024015b602060405180830381865afa1580156114ee573d6000803e3d6000fd5b505050506040513d601f19601f820116820180604052508101906109f69190612eed565b6118a4565b6009546040516370a0823160e01b8152306004820152610cce918391869161151291600160701b9091046001600160701b0316906001600160a01b038516906370a08231906024016114d1565b428410156115ab5760405162461bcd60e51b8152602060048201526014602482015273135859da58dcddd85c158c8e881156141254915160621b604482015260640161058c565b6003546001600160a01b038816600090815260046020526040812080549192917f6e71edae12b1b97f4d1f60370fef10105fa2faae0126114a169c64845d6126c9918b918b918b9190876115fe83613069565b909155506040805160208101969096526001600160a01b0394851690860152929091166060840152608083015260a082015260c0810187905260e0016040516020818303038152906040528051906020012060405160200161167792919061190160f01b81526002810192909252602282015260420190565b60408051601f198184030181528282528051602091820120600080855291840180845281905260ff88169284019290925260608301869052608083018590529092509060019060a0016020604051602081039080840390855afa1580156116e2573d6000803e3d6000fd5b5050604051601f1901519150506001600160a01b038116158015906117185750886001600160a01b0316816001600160a01b0316145b6117645760405162461bcd60e51b815260206004820152601e60248201527f4d616769637377617056323a20494e56414c49445f5349474e41545552450000604482015260640161058c565b61176f898989611f1c565b505050505050505050565b620300095460011461179e5760405162461bcd60e51b815260040161058c90612e74565b600062030009556007546040516370a0823160e01b815230600482015261189b916001600160a01b0316906370a0823190602401602060405180830381865afa1580156117ef573d6000803e3d6000fd5b505050506040513d601f19601f820116820180604052508101906118139190612eed565b6008546040516370a0823160e01b81523060048201526001600160a01b03909116906370a0823190602401602060405180830381865afa15801561185b573d6000803e3d6000fd5b505050506040513d601f19601f8201168201806040525081019061187f9190612eed565b6009546001600160701b0380821691600160701b900416611d46565b60016203000955565b604080518082018252601981527f7472616e7366657228616464726573732c75696e74323536290000000000000060209182015281516001600160a01b0385811660248301526044808301869052845180840390910181526064909201845291810180516001600160e01b031663a9059cbb60e01b179052915160009283928716916119309190613082565b6000604051808303816000865af19150503d806000811461196d576040519150601f19603f3d011682016040523d82523d6000602084013e611972565b606091505b509150915081801561199c57508051158061199c57508080602001905181019061199c919061309e565b6119e85760405162461bcd60e51b815260206004820152601c60248201527f4d616769637377617056323a205452414e534645525f4641494c454400000000604482015260640161058c565b5050505050565b6000811580611a1357508282611a0581836130c0565b9250611a119083613055565b145b610b4b5760405162461bcd60e51b815260206004820152601460248201527364732d6d6174682d6d756c2d6f766572666c6f7760601b604482015260640161058c565b600082611a638382612f1c565b9150811115610b4b5760405162461bcd60e51b815260206004820152601560248201527464732d6d6174682d7375622d756e646572666c6f7760581b604482015260640161058c565b600654604051634ec1b53760e11b8152306004820152600091829182918291829182916001600160a01b0390911690639d836a6e9060240160a060405180830381865afa158015611b01573d6000803e3d6000fd5b505050506040513d601f19601f82011682018060405250810190611b2591906130d7565b60075460085494995092975090955093506001600160a01b03908116925016818a8a15611b525750819050895b600081118015611b625750600087115b15611b8357611b838289612710611b798b866130c0565b6115129190613055565b600081118015611b935750600085115b15611baa57611baa8287612710611b7989866130c0565b6040516370a0823160e01b81523060048201526001600160a01b038516906370a0823190602401602060405180830381865afa158015611bee573d6000803e3d6000fd5b505050506040513d601f19601f82011682018060405250810190611c129190612eed565b6040516370a0823160e01b8152306004820152909a506001600160a01b038416906370a0823190602401602060405180830381865afa158015611c59573d6000803e3d6000fd5b505050506040513d601f19601f82011682018060405250810190611c7d9190612eed565b9850611c8b6127108f613055565b8a1015611cda5760405162461bcd60e51b815260206004820152601d60248201527f4d616769637377617056323a2062616c616e63653041646a7573746564000000604482015260640161058c565b611ce66127108e613055565b891015611d355760405162461bcd60e51b815260206004820152601d60248201527f4d616769637377617056323a2062616c616e63653141646a7573746564000000604482015260640161058c565b505050505050505094509492505050565b6001600160701b038411801590611d6457506001600160701b038311155b611da85760405162461bcd60e51b81526020600482015260156024820152744d616769637377617056323a204f564552464c4f5760581b604482015260640161058c565b60095463ffffffff42811691600160e01b90048116820390811615801590611dd857506001600160701b03841615155b8015611dec57506001600160701b03831615155b15611e8457836001600160701b0316836001600160701b0316600554600a611e14919061312e565b611e1e91906130c0565b611e289190613055565b600a55600b54611e5d9061ffff1642600a54600b54600c9392919061ffff620100008204811691640100000000900416612361565b600b805463ffffffff19166201000061ffff9384160261ffff191617929091169190911790555b6009805463ffffffff8416600160e01b026001600160e01b036001600160701b03898116600160701b9081026001600160e01b03199095168c83161794909417918216831794859055604080519382169282169290921783529290930490911660208201527f1c411e9a96e071241c2f21f7726b17ae89e3cab4c78be50e062b03a9fffbbad1910160405180910390a1505050505050565b6001600160a01b0383811660008181526002602090815260408083209487168084529482529182902085905590518481527f8c5be1e5ebec7d5bd14f71427d1e84f3dd0314c0f7b2291e5b200ac8c7c3b92591015b60405180910390a3505050565b6001600160a01b038316600090815260016020526040902054611fa19082611a56565b6001600160a01b038085166000908152600160205260408082209390935590841681522054611fd09082612499565b6001600160a01b0380841660008181526001602052604090819020939093559151908516907fddf252ad1be2c89b69c2b068fc378daa952ba7f163c4a11628f55a4df523b3ef90611f719085815260200190565b6000808361ffff161161205d5760405162461bcd60e51b81526020600482015260016024820152604960f81b604482015260640161058c565b8261ffff168261ffff1611612073575081610bdf565b825b8261ffff168161ffff1610156120cc576001858261ffff1661ffff811061209e5761209e61313a565b60030201805463ffffffff191663ffffffff92909216919091179055806120c481613150565b915050612075565b50909392505050565b6000600382111561213657508060006120ef600283613055565b6120fa906001613171565b90505b81811015612130579050806002816121158186613055565b61211f9190613171565b6121299190613055565b90506120fd565b50919050565b8115612140575060015b919050565b6000546121529082612499565b60009081556001600160a01b0383168152600160205260409020546121779082612499565b6001600160a01b0383166000818152600160205260408082209390935591519091907fddf252ad1be2c89b69c2b068fc378daa952ba7f163c4a11628f55a4df523b3ef906121c89085815260200190565b60405180910390a35050565b60008183106121e35781610bdf565b5090919050565b606060008261ffff16116122245760405162461bcd60e51b81526020600482015260016024820152604960f81b604482015260640161058c565b845167ffffffffffffffff81111561223e5761223e613184565b604051908082528060200260200182016040528015612267578160200160208202803683370190505b50905060005b85518110156122cc5761229d888888848151811061228d5761228d61313a565b60200260200101518888886124ee565b8282815181106122af576122af61313a565b6020908102919091010152806122c481613069565b91505061226d565b509695505050505050565b6001600160a01b0382166000908152600160205260409020546122fa9082611a56565b6001600160a01b038316600090815260016020526040812091909155546123219082611a56565b60009081556040518281526001600160a01b038416907fddf252ad1be2c89b69c2b068fc378daa952ba7f163c4a11628f55a4df523b3ef906020016121c8565b6000806000888861ffff1661ffff811061237d5761237d61313a565b6040805160608101825260039290920292909201805463ffffffff9081168084526001830154602085015260029092015460ff1615159383019390935290925090881690036123d2578785925092505061248e565b8461ffff168461ffff161180156123fa57506123ef60018661319a565b61ffff168861ffff16145b156124075783915061240b565b8491505b816124178960016131bc565b61242191906131d7565b925061242e818888612660565b898461ffff1661ffff81106124455761244561313a565b825160039190910291909101805463ffffffff191663ffffffff909216919091178155602082015160018201556040909101516002909101805460ff1916911515919091179055505b965096945050505050565b6000826124a68382613171565b9150811015610b4b5760405162461bcd60e51b815260206004820152601460248201527364732d6d6174682d6164642d6f766572666c6f7760601b604482015260640161058c565b60008463ffffffff16600003612578576000878461ffff1661ffff81106125175761251761313a565b6040805160608101825260039290920292909201805463ffffffff9081168084526001830154602085015260029092015460ff161515938301939093529092509088161461256d5761256a818887612660565b90505b602001519050612656565b600061258486886131f8565b90506000806125978a8a858a8a8a6126d9565b91509150816000015163ffffffff168363ffffffff16036125c057506020015191506126569050565b806000015163ffffffff168363ffffffff16036125e557602001519250612656915050565b815181516000916125f5916131f8565b835190915060009061260790866131f8565b90508063ffffffff168263ffffffff168560200151856020015161262b9190612f1c565b6126359190613055565b61263f91906130c0565b846020015161264e9190613171565b955050505050505b9695505050505050565b6040805160608101825260008082526020820181905291810191909152835160009061268c90856131f8565b905060405180606001604052808563ffffffff1681526020018263ffffffff16856126b791906130c0565b87602001516126c69190613171565b8152600160209091015295945050505050565b60408051606081018252600080825260208201819052918101919091526040805160608101825260008082526020820181905291810191909152878461ffff1661ffff811061272a5761272a61313a565b6040805160608101825260039290920292909201805463ffffffff168083526001820154602084015260029091015460ff16151592820192909252925061277390889088612896565b1561279e57815163ffffffff87811691161461248e5781612795838888612660565b9150915061248e565b87836127ab8660016131bc565b6127b591906131d7565b61ffff1661ffff81106127ca576127ca61313a565b6040805160608101825260039290920292909201805463ffffffff168252600181015460208301526002015460ff16151591810182905292506128395760408051606081018252895463ffffffff16815260018a0154602082015260028a015460ff1615159181019190915291505b61284887836000015188612896565b61287a5760405162461bcd60e51b815260206004820152600360248201526213d31160ea1b604482015260640161058c565b6128878888888787612967565b91509150965096945050505050565b60008363ffffffff168363ffffffff16111580156128c057508363ffffffff168263ffffffff1611155b156128dc578163ffffffff168363ffffffff1611159050610bdf565b60008463ffffffff168463ffffffff161161290b5761290663ffffffff8516640100000000613215565b612913565b8363ffffffff165b64ffffffffff16905060008563ffffffff168463ffffffff161161294b5761294663ffffffff8516640100000000613215565b612953565b8363ffffffff165b64ffffffffff169091111595945050505050565b6040805160608082018352600080835260208084018290528385018290528451928301855281835282018190529281018390529091836129a88660016131bc565b6129b291906131d7565b61ffff169050600060018561ffff16836129cc9190613171565b6129d69190612f1c565b905060005b60026129e78385613171565b6129f19190613055565b905089612a0261ffff881683613233565b61ffff8110612a1357612a1361313a565b6040805160608101825260039290920292909201805463ffffffff168252600181015460208301526002015460ff1615159181018290529550612a6257612a5b816001613171565b92506129db565b8961ffff8716612a73836001613171565b612a7d9190613233565b61ffff8110612a8e57612a8e61313a565b6040805160608101825260039290920292909201805463ffffffff168252600181015460208301526002015460ff161515918101919091528551909450600090612ada908b908b612896565b9050808015612af35750612af38a8a8760000151612896565b15612afe5750612b29565b80612b1557612b0e600183612f1c565b9250612b23565b612b20826001613171565b93505b506129db565b5050509550959350505050565b6001600160a01b0381168114612b4b57600080fd5b50565b600080600080600060808688031215612b6657600080fd5b85359450602086013593506040860135612b7f81612b36565b9250606086013567ffffffffffffffff80821115612b9c57600080fd5b818801915088601f830112612bb057600080fd5b813581811115612bbf57600080fd5b896020828501011115612bd157600080fd5b9699959850939650602001949392505050565b60005b83811015612bff578181015183820152602001612be7565b50506000910152565b6020815260008251806020840152612c27816040850160208701612be4565b601f01601f19169190910160400192915050565b60008060408385031215612c4e57600080fd5b8235612c5981612b36565b946020939093013593505050565b600080600060608486031215612c7c57600080fd5b8335612c8781612b36565b92506020840135612c9781612b36565b929592945050506040919091013590565b600060208284031215612cba57600080fd5b5035919050565b600060208284031215612cd357600080fd5b813561ffff81168114610bdf57600080fd5b60008060408385031215612cf857600080fd5b8235612d0381612b36565b91506020830135612d1381612b36565b809150509250929050565b600060208284031215612d3057600080fd5b8135610bdf81612b36565b60008060208385031215612d4e57600080fd5b823567ffffffffffffffff80821115612d6657600080fd5b818501915085601f830112612d7a57600080fd5b813581811115612d8957600080fd5b8660208260051b8501011115612d9e57600080fd5b60209290920196919550909350505050565b6020808252825182820181905260009190848201906040850190845b81811015612de857835183529284019291840191600101612dcc565b50909695505050505050565b60ff81168114612b4b57600080fd5b600080600080600080600060e0888a031215612e1e57600080fd5b8735612e2981612b36565b96506020880135612e3981612b36565b955060408801359450606088013593506080880135612e5781612df4565b9699959850939692959460a0840135945060c09093013592915050565b602080825260139082015272135859da58dcddd85c158c8e881313d0d2d151606a1b604082015260600190565b60018060a01b038616815284602082015283604082015260806060820152816080820152818360a0830137600081830160a090810191909152601f909201601f19160101949350505050565b600060208284031215612eff57600080fd5b5051919050565b634e487b7160e01b600052601160045260246000fd5b81810381811115610b4b57610b4b612f06565b600181815b80851115612f6a578160001904821115612f5057612f50612f06565b80851615612f5d57918102915b93841c9390800290612f34565b509250929050565b600082612f8157506001610b4b565b81612f8e57506000610b4b565b8160018114612fa45760028114612fae57612fca565b6001915050610b4b565b60ff841115612fbf57612fbf612f06565b50506001821b610b4b565b5060208310610133831016604e8410600b8410161715612fed575081810a610b4b565b612ff78383612f2f565b806000190482111561300b5761300b612f06565b029392505050565b6000610bdf60ff841683612f72565b60006020828403121561303457600080fd5b8151610bdf81612df4565b634e487b7160e01b600052601260045260246000fd5b6000826130645761306461303f565b500490565b60006001820161307b5761307b612f06565b5060010190565b60008251613094818460208701612be4565b9190910192915050565b6000602082840312156130b057600080fd5b81518015158114610bdf57600080fd5b8082028115828204841417610b4b57610b4b612f06565b600080600080600060a086880312156130ef57600080fd5b85519450602086015161310181612b36565b60408701516060880151919550935061311981612b36565b80925050608086015190509295509295909350565b6000610bdf8383612f72565b634e487b7160e01b600052603260045260246000fd5b600061ffff80831681810361316757613167612f06565b6001019392505050565b80820180821115610b4b57610b4b612f06565b634e487b7160e01b600052604160045260246000fd5b61ffff8281168282160390808211156131b5576131b5612f06565b5092915050565b61ffff8181168382160190808211156131b5576131b5612f06565b600061ffff808416806131ec576131ec61303f565b92169190910692915050565b63ffffffff8281168282160390808211156131b5576131b5612f06565b64ffffffffff8181168382160190808211156131b5576131b5612f06565b6000826132425761324261303f565b50069056fea2646970667358221220f4e225594276795b70858d627d1bcf466436ef8a13fb3777c46ee304a7080de564736f6c63430008130033a2646970667358221220d3e588d7c13c56b3d8802408808dc9f145a86fc98f5360cc5bd0c874c2654db564736f6c63430008130033",
    "linkReferences": {}
  },
  "methodIdentifiers": {
    "MAX_FEE()": "bc063e1a",
    "acceptOwnership()": "79ba5097",
    "allPairs(uint256)": "1e3dd18b",
    "allPairsLength()": "574f2ba3",
    "createPair(address,address)": "c9c65396",
    "defaultFees()": "118b48e5",
    "getFees(address)": "9af608c9",
    "getFeesAndRecipients(address)": "9d836a6e",
    "getPair(address,address)": "e6a43905",
    "getTotalFee(address)": "8c232838",
    "owner()": "8da5cb5b",
    "pairFees(address)": "6d771c54",
    "pendingOwner()": "e30c3978",
    "protocolFeeBeneficiary()": "ceb80df2",
    "renounceOwnership()": "715018a6",
    "setDefaultFees((address,uint256,uint256,uint256))": "c9e57975",
    "setLpFee(address,uint256)": "ab8af1a9",
    "setProtocolFee(address,uint256)": "b5b3ca2c",
    "setProtocolFeeBeneficiary(address)": "9585b0be",
    "setRoyaltiesFee(address,address,uint256)": "4cc25b88",
    "transferOwnership(address)": "f2fde38b"
  },
  "id": 61
}