{
  "_format": "hh-sol-artifact-1",
  "contractName": "PRESALE",
  "sourceName": "contracts/presale.sol",
  "abi": [
    {
      "inputs": [
        {
          "internalType": "contract IERC20",
          "name": "_baseToken",
          "type": "address"
        },
        {
          "internalType": "address",
          "name": "_stakingRewards",
          "type": "address"
        },
        {
          "internalType": "contract INftVaultFactory",
          "name": "_factory",
          "type": "address"
        },
        {
          "internalType": "contract IMagicSwapV2Router",
          "name": "_router",
          "type": "address"
        },
        {
          "internalType": "contract IMagicSwapUniswapV2Factory",
          "name": "_msufactory",
          "type": "address"
        },
        {
          "internalType": "contract IThresholdERC1155",
          "name": "_memecoinImplementation",
          "type": "address"
        },
        {
          "internalType": "address",
          "name": "_chainlinkOracle",
          "type": "address"
        }
      ],
      "stateMutability": "nonpayable",
      "type": "constructor"
    },
    {
      "inputs": [],
      "name": "FailedDeployment",
      "type": "error"
    },
    {
      "inputs": [
        {
          "internalType": "uint256",
          "name": "balance",
          "type": "uint256"
        },
        {
          "internalType": "uint256",
          "name": "needed",
          "type": "uint256"
        }
      ],
      "name": "InsufficientBalance",
      "type": "error"
    },
    {
      "anonymous": false,
      "inputs": [
        {
          "indexed": true,
          "internalType": "address",
          "name": "memeCoinAddress",
          "type": "address"
        },
        {
          "indexed": true,
          "internalType": "address",
          "name": "buyer",
          "type": "address"
        },
        {
          "indexed": false,
          "internalType": "uint256",
          "name": "amountNFT",
          "type": "uint256"
        },
        {
          "indexed": false,
          "internalType": "uint256",
          "name": "amountBaseToken",
          "type": "uint256"
        }
      ],
      "name": "Buy",
      "type": "event"
    },
    {
      "anonymous": false,
      "inputs": [
        {
          "indexed": true,
          "internalType": "address",
          "name": "lpaddress",
          "type": "address"
        },
        {
          "components": [
            {
              "internalType": "bool",
              "name": "readyToGraduate",
              "type": "bool"
            },
            {
              "internalType": "bool",
              "name": "graduated",
              "type": "bool"
            },
            {
              "internalType": "uint256",
              "name": "targetBaseTokenToRaise",
              "type": "uint256"
            },
            {
              "internalType": "uint256",
              "name": "presalePrice",
              "type": "uint256"
            },
            {
              "internalType": "uint256",
              "name": "returnForOne",
              "type": "uint256"
            },
            {
              "internalType": "uint256",
              "name": "baseTokenRaised",
              "type": "uint256"
            },
            {
              "internalType": "uint256",
              "name": "totalsupply",
              "type": "uint256"
            },
            {
              "internalType": "address",
              "name": "paircoin",
              "type": "address"
            },
            {
              "internalType": "uint256",
              "name": "amounttolp",
              "type": "uint256"
            },
            {
              "internalType": "uint256",
              "name": "amounttosell",
              "type": "uint256"
            },
            {
              "internalType": "contract IThresholdERC1155",
              "name": "memecoin",
              "type": "address"
            }
          ],
          "indexed": false,
          "internalType": "struct PRESALE.PresaleInfo",
          "name": "presaleinfo",
          "type": "tuple"
        }
      ],
      "name": "Graduation",
      "type": "event"
    },
    {
      "anonymous": false,
      "inputs": [
        {
          "indexed": true,
          "internalType": "address",
          "name": "memeCoinAddress",
          "type": "address"
        },
        {
          "components": [
            {
              "internalType": "bool",
              "name": "readyToGraduate",
              "type": "bool"
            },
            {
              "internalType": "bool",
              "name": "graduated",
              "type": "bool"
            },
            {
              "internalType": "uint256",
              "name": "targetBaseTokenToRaise",
              "type": "uint256"
            },
            {
              "internalType": "uint256",
              "name": "presalePrice",
              "type": "uint256"
            },
            {
              "internalType": "uint256",
              "name": "returnForOne",
              "type": "uint256"
            },
            {
              "internalType": "uint256",
              "name": "baseTokenRaised",
              "type": "uint256"
            },
            {
              "internalType": "uint256",
              "name": "totalsupply",
              "type": "uint256"
            },
            {
              "internalType": "address",
              "name": "paircoin",
              "type": "address"
            },
            {
              "internalType": "uint256",
              "name": "amounttolp",
              "type": "uint256"
            },
            {
              "internalType": "uint256",
              "name": "amounttosell",
              "type": "uint256"
            },
            {
              "internalType": "contract IThresholdERC1155",
              "name": "memecoin",
              "type": "address"
            }
          ],
          "indexed": false,
          "internalType": "struct PRESALE.PresaleInfo",
          "name": "presaleinfo",
          "type": "tuple"
        }
      ],
      "name": "GraduationReady",
      "type": "event"
    },
    {
      "anonymous": false,
      "inputs": [
        {
          "indexed": false,
          "internalType": "string",
          "name": "name",
          "type": "string"
        },
        {
          "indexed": false,
          "internalType": "string",
          "name": "symbol",
          "type": "string"
        },
        {
          "indexed": false,
          "internalType": "string",
          "name": "uri",
          "type": "string"
        },
        {
          "indexed": false,
          "internalType": "uint256",
          "name": "amount",
          "type": "uint256"
        },
        {
          "components": [
            {
              "internalType": "bool",
              "name": "readyToGraduate",
              "type": "bool"
            },
            {
              "internalType": "bool",
              "name": "graduated",
              "type": "bool"
            },
            {
              "internalType": "uint256",
              "name": "targetBaseTokenToRaise",
              "type": "uint256"
            },
            {
              "internalType": "uint256",
              "name": "presalePrice",
              "type": "uint256"
            },
            {
              "internalType": "uint256",
              "name": "returnForOne",
              "type": "uint256"
            },
            {
              "internalType": "uint256",
              "name": "baseTokenRaised",
              "type": "uint256"
            },
            {
              "internalType": "uint256",
              "name": "totalsupply",
              "type": "uint256"
            },
            {
              "internalType": "address",
              "name": "paircoin",
              "type": "address"
            },
            {
              "internalType": "uint256",
              "name": "amounttolp",
              "type": "uint256"
            },
            {
              "internalType": "uint256",
              "name": "amounttosell",
              "type": "uint256"
            },
            {
              "internalType": "contract IThresholdERC1155",
              "name": "memecoin",
              "type": "address"
            }
          ],
          "indexed": false,
          "internalType": "struct PRESALE.PresaleInfo",
          "name": "presaleinfo",
          "type": "tuple"
        }
      ],
      "name": "MemeMade",
      "type": "event"
    },
    {
      "anonymous": false,
      "inputs": [
        {
          "indexed": true,
          "internalType": "address",
          "name": "_collectionAddress",
          "type": "address"
        },
        {
          "components": [
            {
              "internalType": "address",
              "name": "lpaddress",
              "type": "address"
            },
            {
              "internalType": "address",
              "name": "vaultaddress",
              "type": "address"
            },
            {
              "internalType": "bool",
              "name": "approved",
              "type": "bool"
            },
            {
              "internalType": "uint256",
              "name": "tokenid",
              "type": "uint256"
            },
            {
              "internalType": "string",
              "name": "symbol",
              "type": "string"
            }
          ],
          "indexed": false,
          "internalType": "struct PRESALE.AltPairInfo",
          "name": "alt",
          "type": "tuple"
        }
      ],
      "name": "PairCoinApproved",
      "type": "event"
    },
    {
      "anonymous": false,
      "inputs": [
        {
          "indexed": true,
          "internalType": "address",
          "name": "memeCoinAddress",
          "type": "address"
        },
        {
          "indexed": true,
          "internalType": "address",
          "name": "seller",
          "type": "address"
        },
        {
          "indexed": false,
          "internalType": "uint256",
          "name": "amountNFT",
          "type": "uint256"
        },
        {
          "indexed": false,
          "internalType": "uint256",
          "name": "amountBaseToken",
          "type": "uint256"
        }
      ],
      "name": "Sell",
      "type": "event"
    },
    {
      "inputs": [],
      "name": "CHAINLINK_BASE_USD_ORACLE",
      "outputs": [
        {
          "internalType": "address",
          "name": "",
          "type": "address"
        }
      ],
      "stateMutability": "view",
      "type": "function"
    },
    {
      "inputs": [],
      "name": "TARGETMCAP",
      "outputs": [
        {
          "internalType": "uint256",
          "name": "",
          "type": "uint256"
        }
      ],
      "stateMutability": "view",
      "type": "function"
    },
    {
      "inputs": [
        {
          "internalType": "address",
          "name": "_ca",
          "type": "address"
        },
        {
          "components": [
            {
              "internalType": "address",
              "name": "lpaddress",
              "type": "address"
            },
            {
              "internalType": "address",
              "name": "vaultaddress",
              "type": "address"
            },
            {
              "internalType": "bool",
              "name": "approved",
              "type": "bool"
            },
            {
              "internalType": "uint256",
              "name": "tokenid",
              "type": "uint256"
            },
            {
              "internalType": "string",
              "name": "symbol",
              "type": "string"
            }
          ],
          "internalType": "struct PRESALE.AltPairInfo",
          "name": "_alp",
          "type": "tuple"
        }
      ],
      "name": "addAltPair",
      "outputs": [],
      "stateMutability": "nonpayable",
      "type": "function"
    },
    {
      "inputs": [
        {
          "internalType": "address",
          "name": "",
          "type": "address"
        }
      ],
      "name": "approvedpaircoins",
      "outputs": [
        {
          "internalType": "address",
          "name": "lpaddress",
          "type": "address"
        },
        {
          "internalType": "address",
          "name": "vaultaddress",
          "type": "address"
        },
        {
          "internalType": "bool",
          "name": "approved",
          "type": "bool"
        },
        {
          "internalType": "uint256",
          "name": "tokenid",
          "type": "uint256"
        },
        {
          "internalType": "string",
          "name": "symbol",
          "type": "string"
        }
      ],
      "stateMutability": "view",
      "type": "function"
    },
    {
      "inputs": [],
      "name": "baseToken",
      "outputs": [
        {
          "internalType": "contract IERC20",
          "name": "",
          "type": "address"
        }
      ],
      "stateMutability": "view",
      "type": "function"
    },
    {
      "inputs": [
        {
          "internalType": "address",
          "name": "_memeCoinAddress",
          "type": "address"
        },
        {
          "internalType": "uint256",
          "name": "_amountNftToBuy",
          "type": "uint256"
        }
      ],
      "name": "buyPresale",
      "outputs": [],
      "stateMutability": "nonpayable",
      "type": "function"
    },
    {
      "inputs": [
        {
          "internalType": "address",
          "name": "_newowner",
          "type": "address"
        }
      ],
      "name": "changeOwner",
      "outputs": [],
      "stateMutability": "nonpayable",
      "type": "function"
    },
    {
      "inputs": [
        {
          "internalType": "uint256",
          "name": "_mcapindollars",
          "type": "uint256"
        }
      ],
      "name": "changeTargetMcap",
      "outputs": [],
      "stateMutability": "nonpayable",
      "type": "function"
    },
    {
      "inputs": [
        {
          "internalType": "address",
          "name": "_altcoin",
          "type": "address"
        }
      ],
      "name": "getAltPairCoinPriceUSD",
      "outputs": [
        {
          "internalType": "uint256",
          "name": "",
          "type": "uint256"
        }
      ],
      "stateMutability": "view",
      "type": "function"
    },
    {
      "inputs": [],
      "name": "getBaseTokenPriceUSD",
      "outputs": [
        {
          "internalType": "uint256",
          "name": "baseTokenPrice",
          "type": "uint256"
        }
      ],
      "stateMutability": "view",
      "type": "function"
    },
    {
      "inputs": [
        {
          "internalType": "address",
          "name": "_memeCoinAddress",
          "type": "address"
        },
        {
          "internalType": "uint256",
          "name": "_amountOfNftToBuy",
          "type": "uint256"
        }
      ],
      "name": "getQuote",
      "outputs": [
        {
          "internalType": "uint256",
          "name": "totalbaseToken",
          "type": "uint256"
        },
        {
          "internalType": "uint256",
          "name": "tax",
          "type": "uint256"
        }
      ],
      "stateMutability": "view",
      "type": "function"
    },
    {
      "inputs": [
        {
          "internalType": "address",
          "name": "_memeCoinAddress",
          "type": "address"
        }
      ],
      "name": "graduatePresale",
      "outputs": [
        {
          "internalType": "address",
          "name": "lpaddy",
          "type": "address"
        }
      ],
      "stateMutability": "nonpayable",
      "type": "function"
    },
    {
      "inputs": [
        {
          "internalType": "address",
          "name": "",
          "type": "address"
        },
        {
          "internalType": "address",
          "name": "",
          "type": "address"
        },
        {
          "internalType": "uint256[]",
          "name": "",
          "type": "uint256[]"
        },
        {
          "internalType": "uint256[]",
          "name": "",
          "type": "uint256[]"
        },
        {
          "internalType": "bytes",
          "name": "",
          "type": "bytes"
        }
      ],
      "name": "onERC1155BatchReceived",
      "outputs": [
        {
          "internalType": "bytes4",
          "name": "",
          "type": "bytes4"
        }
      ],
      "stateMutability": "nonpayable",
      "type": "function"
    },
    {
      "inputs": [
        {
          "internalType": "address",
          "name": "",
          "type": "address"
        },
        {
          "internalType": "address",
          "name": "",
          "type": "address"
        },
        {
          "internalType": "uint256",
          "name": "",
          "type": "uint256"
        },
        {
          "internalType": "uint256",
          "name": "",
          "type": "uint256"
        },
        {
          "internalType": "bytes",
          "name": "",
          "type": "bytes"
        }
      ],
      "name": "onERC1155Received",
      "outputs": [
        {
          "internalType": "bytes4",
          "name": "",
          "type": "bytes4"
        }
      ],
      "stateMutability": "nonpayable",
      "type": "function"
    },
    {
      "inputs": [],
      "name": "owner",
      "outputs": [
        {
          "internalType": "address",
          "name": "",
          "type": "address"
        }
      ],
      "stateMutability": "view",
      "type": "function"
    },
    {
      "inputs": [
        {
          "internalType": "address",
          "name": "",
          "type": "address"
        }
      ],
      "name": "presaleInfo",
      "outputs": [
        {
          "internalType": "bool",
          "name": "readyToGraduate",
          "type": "bool"
        },
        {
          "internalType": "bool",
          "name": "graduated",
          "type": "bool"
        },
        {
          "internalType": "uint256",
          "name": "targetBaseTokenToRaise",
          "type": "uint256"
        },
        {
          "internalType": "uint256",
          "name": "presalePrice",
          "type": "uint256"
        },
        {
          "internalType": "uint256",
          "name": "returnForOne",
          "type": "uint256"
        },
        {
          "internalType": "uint256",
          "name": "baseTokenRaised",
          "type": "uint256"
        },
        {
          "internalType": "uint256",
          "name": "totalsupply",
          "type": "uint256"
        },
        {
          "internalType": "address",
          "name": "paircoin",
          "type": "address"
        },
        {
          "internalType": "uint256",
          "name": "amounttolp",
          "type": "uint256"
        },
        {
          "internalType": "uint256",
          "name": "amounttosell",
          "type": "uint256"
        },
        {
          "internalType": "contract IThresholdERC1155",
          "name": "memecoin",
          "type": "address"
        }
      ],
      "stateMutability": "view",
      "type": "function"
    },
    {
      "inputs": [
        {
          "internalType": "address",
          "name": "_memeCoinAddress",
          "type": "address"
        },
        {
          "internalType": "uint256",
          "name": "_sellAmountNFT",
          "type": "uint256"
        }
      ],
      "name": "sellPresale",
      "outputs": [],
      "stateMutability": "nonpayable",
      "type": "function"
    },
    {
      "inputs": [],
      "name": "stakingRewards",
      "outputs": [
        {
          "internalType": "address",
          "name": "",
          "type": "address"
        }
      ],
      "stateMutability": "view",
      "type": "function"
    },
    {
      "inputs": [
        {
          "internalType": "string",
          "name": "_name",
          "type": "string"
        },
        {
          "internalType": "string",
          "name": "_symbol",
          "type": "string"
        },
        {
          "internalType": "uint256",
          "name": "_totalsupply",
          "type": "uint256"
        },
        {
          "internalType": "string",
          "name": "_uri",
          "type": "string"
        },
        {
          "internalType": "uint256[]",
          "name": "_thresholds",
          "type": "uint256[]"
        }
      ],
      "name": "startPresale",
      "outputs": [
        {
          "internalType": "address",
          "name": "",
          "type": "address"
        }
      ],
      "stateMutability": "nonpayable",
      "type": "function"
    },
    {
      "inputs": [
        {
          "internalType": "string",
          "name": "_name",
          "type": "string"
        },
        {
          "internalType": "string",
          "name": "_symbol",
          "type": "string"
        },
        {
          "internalType": "string",
          "name": "_uri",
          "type": "string"
        },
        {
          "internalType": "address",
          "name": "_paircoin1155",
          "type": "address"
        },
        {
          "internalType": "uint256[]",
          "name": "_thresholds",
          "type": "uint256[]"
        }
      ],
      "name": "startPresale1155",
      "outputs": [
        {
          "internalType": "address",
          "name": "",
          "type": "address"
        }
      ],
      "stateMutability": "nonpayable",
      "type": "function"
    }
  ],
  "bytecode": "0x60a060405261a41060035534801561001657600080fd5b50604051613b03380380613b03833981016040819052610035916100fe565b60018054336001600160a01b03199182161782556000805482166001600160a01b039a8b1617815560048054938401815581527f8a35acfbc15ff81a39ae7d344fd709f28e8600b4aa8c65c6b64bfe7fe36bd19b90920191909155600280548216978916979097179096556007805487169588169590951790945560088054861693871693909317909255600980548516918616919091179055600a8054909316908416179091551660805261019a565b6001600160a01b03811681146100fb57600080fd5b50565b600080600080600080600060e0888a03121561011957600080fd5b8751610124816100e6565b6020890151909750610135816100e6565b6040890151909650610146816100e6565b6060890151909550610157816100e6565b6080890151909450610168816100e6565b60a0890151909350610179816100e6565b60c089015190925061018a816100e6565b8091505092959891949750929550565b6080516139476101bc6000396000818161019f01526103d701526139476000f3fe608060405234801561001057600080fd5b506004361061010c5760003560e01c8063a6f9dae11161009d578063a6f9dae11461020f578063aa6a997414610222578063b2cc03001461022b578063b4423e261461023e578063bc197c811461031a578063c55dae6314610355578063da2de2b414610368578063df2bafcd1461038c578063e40824701461039f578063f23a6e61146103b257600080fd5b80630dd203ef146101115780632649cdfd1461012c57806349da42ad14610141578063532ab8a11461015457806356fe8b3f1461016757806364b87a701461017a5780637f7c7b151461019a57806382c0ab21146101c15780638da5cb5b146101e9578063a3050a9a146101fc575b600080fd5b6101196103d2565b6040519081526020015b60405180910390f35b61013f61013a366004612a3a565b610476565b005b61013f61014f366004612a3a565b6108fe565b61013f610162366004612a66565b610d2c565b610119610175366004612a7f565b610da9565b60025461018d906001600160a01b031681565b6040516101239190612ab0565b61018d7f000000000000000000000000000000000000000000000000000000000000000081565b6101d46101cf366004612a3a565b611022565b60408051928352602083019190915201610123565b60015461018d906001600160a01b031681565b61018d61020a366004612c23565b6111a3565b61013f61021d366004612a7f565b61141a565b61011960035481565b61018d610239366004612ce9565b6114bc565b6102b361024c366004612a7f565b6005602081905260009182526040909120805460018201546002830154600384015460048501549585015460068601546007870154600888015460099098015460ff8089169a6101009099041698969795969495946001600160a01b03938416939091168b565b604080519b15158c5299151560208c0152988a01979097526060890195909552608088019390935260a087019190915260c08601526001600160a01b0390811660e08601526101008501919091526101208401919091521661014082015261016001610123565b61033c610328366004612e2b565b63bc197c8160e01b98975050505050505050565b6040516001600160e01b03199091168152602001610123565b60005461018d906001600160a01b031681565b61037b610376366004612a7f565b611869565b604051610123959493929190612f39565b61018d61039a366004612a7f565b611933565b61013f6103ad366004612f82565b611c33565b61033c6103c0366004613049565b63f23a6e6160e01b9695505050505050565b6000807f000000000000000000000000000000000000000000000000000000000000000090506000816001600160a01b031663feaf968c6040518163ffffffff1660e01b815260040160a060405180830381865afa158015610438573d6000803e3d6000fd5b505050506040513d601f19601f8201168201806040525081019061045c91906130e3565b50505091505060648161046f9190613161565b9250505090565b6001600160a01b03808316600090815260056020818152604092839020835161016081018552815460ff8082161580158452610100928390049091161515948301949094526001830154958201959095526002820154606082015260038201546080820152600482015460a08201529281015460c08401526006810154851660e084015260078101549383019390935260088301546101208301526009909201549092166101408301526105455760405162461bcd60e51b815260040161053c90613175565b60405180910390fd5b6000806105528585611022565b915091508260400151828460a0015161056b91906131a0565b111561059a578260a00151836040015161058591906131b3565b91508260600151826105979190613161565b93505b818360a001516105aa91906131a0565b6001600160a01b03808716600090815260056020526040812060040192909255905460e08501519082169116036107ac5760e08301516000906001600160a01b03166323b872dd33306105fd86886131a0565b6040516001600160e01b031960e086901b1681526001600160a01b03938416600482015292909116602483015260448201526064016020604051808303816000875af1158015610651573d6000803e3d6000fd5b505050506040513d601f19601f8201168201806040525081019061067591906131c6565b60e085015160025460405163a9059cbb60e01b81529293506000926001600160a01b039283169263a9059cbb926106b39291169087906004016131e3565b6020604051808303816000875af11580156106d2573d6000803e3d6000fd5b505050506040513d601f19601f820116820180604052508101906106f691906131c6565b90508180156107025750805b61073b5760405162461bcd60e51b815260206004820152600a602482015269189d5e4819985a5b195960b21b604482015260640161053c565b8461014001516001600160a01b031663f242432a303360008a6040518563ffffffff1660e01b815260040161077394939291906131fc565b600060405180830381600087803b15801561078d57600080fd5b505af11580156107a1573d6000803e3d6000fd5b505050505050610880565b8260e001516001600160a01b031663f242432a33306000866040518563ffffffff1660e01b81526004016107e394939291906131fc565b600060405180830381600087803b1580156107fd57600080fd5b505af1158015610811573d6000803e3d6000fd5b505050508261014001516001600160a01b031663f242432a30336000886040518563ffffffff1660e01b815260040161084d94939291906131fc565b600060405180830381600087803b15801561086757600080fd5b505af115801561087b573d6000803e3d6000fd5b505050505b6040808401516001600160a01b038716600090815260056020529190912060040154106108b0576108b085611d5f565b604080518581526020810184905233916001600160a01b038816917f89f5adc174562e07c9c9b1cae7109bbecb21cf9d1b2847e550042b8653c54a0e91015b60405180910390a35050505050565b6001600160a01b03808316600090815260056020818152604092839020835161016081018552815460ff808216151583526101009182900416158015948301949094526001830154958201959095526002820154606082015260038201546080820152600482015460a08201529281015460c08401526006810154851660e084015260078101549383019390935260088301546101208301526009909201549092166101408301526109c25760405162461bcd60e51b815260040161053c90613175565b6000806109cf8585611022565b915091508260a00151821115610a1b5760405162461bcd60e51b815260206004820152601160248201527038363ab733b290383937ba32b1ba34b7b760791b604482015260640161053c565b818360a00151610a2b91906131b3565b6001600160a01b03808716600090815260056020526040812060040192909255905460e0850151908216911603610c155760e08301516000906001600160a01b031663a9059cbb33610a7d85876131b3565b6040518363ffffffff1660e01b8152600401610a9a9291906131e3565b6020604051808303816000875af1158015610ab9573d6000803e3d6000fd5b505050506040513d601f19601f82011682018060405250810190610add91906131c6565b60e085015160025460405163a9059cbb60e01b81529293506000926001600160a01b039283169263a9059cbb92610b1b9291169087906004016131e3565b6020604051808303816000875af1158015610b3a573d6000803e3d6000fd5b505050506040513d601f19601f82011682018060405250810190610b5e91906131c6565b9050818015610b6a5750805b610ba45760405162461bcd60e51b815260206004820152600b60248201526a1cd95b1b0819985a5b195960aa1b604482015260640161053c565b8461014001516001600160a01b031663f242432a333060008a6040518563ffffffff1660e01b8152600401610bdc94939291906131fc565b600060405180830381600087803b158015610bf657600080fd5b505af1158015610c0a573d6000803e3d6000fd5b505050505050610ce9565b8261014001516001600160a01b031663f242432a33306000886040518563ffffffff1660e01b8152600401610c4d94939291906131fc565b600060405180830381600087803b158015610c6757600080fd5b505af1158015610c7b573d6000803e3d6000fd5b505050508260e001516001600160a01b031663f242432a30336000866040518563ffffffff1660e01b8152600401610cb694939291906131fc565b600060405180830381600087803b158015610cd057600080fd5b505af1158015610ce4573d6000803e3d6000fd5b505050505b604080518581526020810184905233916001600160a01b038816917fa082022e93cfcd9f1da5f9236718053910f7e840da080c789c7845698dc032ff91016108ef565b6001546001600160a01b03163314610d565760405162461bcd60e51b815260040161053c90613234565b60008111610da45760405162461bcd60e51b815260206004820152601b60248201527a06d636170206d7573742062652067726561746572207468616e203602c1b604482015260640161053c565b600355565b6001600160a01b038181166000908152600660209081526040808320815160a081018352815486168152600182015495861693810193909352600160a01b90940460ff16151590820152600283015460608201526003830180549293849390916080840191610e1790613257565b80601f0160208091040260200160405190810160405280929190818152602001828054610e4390613257565b8015610e905780601f10610e6557610100808354040283529160200191610e90565b820191906000526020600020905b815481529060010190602001808311610e7357829003601f168201915b5050509190925250506000805483516040516370a0823160e01b815294955091936001600160a01b0390911692506370a0823191610ed091600401612ab0565b602060405180830381865afa158015610eed573d6000803e3d6000fd5b505050506040513d601f19601f82011682018060405250810190610f119190613291565b602083015183516040516370a0823160e01b81529293506000926001600160a01b03909216916370a0823191610f4991600401612ab0565b602060405180830381865afa158015610f66573d6000803e3d6000fd5b505050506040513d601f19601f82011682018060405250810190610f8a9190613291565b905060008111610fcd5760405162461bcd60e51b815260206004820152600e60248201526d5a65726f206c697175696469747960901b604482015260640161053c565b600081610fe284670de0b6b3a76400006132aa565b610fec9190613161565b90506000610ff86103d2565b9050670de0b6b3a764000061100d82846132aa565b6110179190613161565b979650505050505050565b6001600160a01b038083166000908152600560208181526040808420815161016081018352815460ff80821615158352610100918290041615159482019490945260018201549281019290925260028101546060830181905260038201546080840152600482015460a08401529381015460c08301526006810154861660e0830152600781015492820192909252600882015461012082015260099091015490931661014084015290918291156110f7578381606001516110e391906132aa565b92506110f060c884613161565b915061119b565b608081015161110690856132c1565b156111445760405162461bcd60e51b815260206004820152600e60248201526d77726f6e67206d756c7469706c6560901b604482015260640161053c565b60808101516111539085613161565b92506000831161118d5760405162461bcd60e51b81526020600482015260056024820152640f0f0f0f0f60db1b604482015260640161053c565b61119860c885613161565b91505b509250929050565b600064174876e8008411156112065760405162461bcd60e51b815260206004820152602360248201527f5f746f74616c737570706c79206d757374206265206c657373207468616e203160448201526218183160e91b606482015260840161053c565b600a5460009061121e906001600160a01b0316611db6565b60025460405163a565dbad60e01b81529192506001600160a01b038084169263a565dbad9261125e9233929116908a908d908d908c908c90600401613311565b600060405180830381600087803b15801561127857600080fd5b505af115801561128c573d6000803e3d6000fd5b5050505060008060006112a0886000611dc9565b9194509250905060006112b383836132c1565b90506112bd6129b2565b6101008101859052610120810184905260c081018a90526001600160a01b0386166101408201526112ee82846131b3565b60408201819052611300908590613161565b6060820190815260006080830181815281546001600160a01b0390811660e086019081528a821684526005602081815260409586902088518154928a015161ffff1990931690151561ff001916176101009215158302178155868901516001820155965160028801559351600387015560a0870151600487015560c087015190860155516006850180546001600160a01b0319908116928416929092179055918501516007850155610120850151600885015561014085015160099094018054909216931692909217909155517f9eebf593e2999b320300f54bf9a3684f78f4c621194ff1d94bbf97de231a3b6090611402908e908e908d908f90879061338c565b60405180910390a150939a9950505050505050505050565b6001546001600160a01b031633146114445760405162461bcd60e51b815260040161053c90613234565b6001600160a01b03811661149a5760405162461bcd60e51b815260206004820152601d60248201527f6e6577206f776e657220697320746865207a65726f2061646472657373000000604482015260640161053c565b600180546001600160a01b0319166001600160a01b0392909216919091179055565b6001600160a01b038281166000908152600660209081526040808320815160a081018352815486168152600182015495861693810193909352600160a01b90940460ff16151590820152600283015460608201526003830180549293633b9aca0093859392608084019161152f90613257565b80601f016020809104026020016040519081016040528092919081815260200182805461155b90613257565b80156115a85780601f1061157d576101008083540402835291602001916115a8565b820191906000526020600020905b81548152906001019060200180831161158b57829003601f168201915b505050505081525050905080604001516115f35760405162461bcd60e51b815260206004820152600c60248201526b1b9bdd08185c1c1c9bdd995960a21b604482015260640161053c565b600a5460009061160b906001600160a01b0316611db6565b60025460405163a565dbad60e01b81529192506001600160a01b038084169263a565dbad9261164b92339291169088908f908f908f908e90600401613311565b600060405180830381600087803b15801561166557600080fd5b505af1158015611679573d6000803e3d6000fd5b50505050600080600061168c868a611dc9565b919450925090506116a5670de0b6b3a764000082613161565b90506116af6129b2565b610100810184905261012081018390526000602082015260c081018790526001600160a01b038086166101408301528a1660e082015286821115611726576116f78383613161565b606082015260006080820181905261170f84846132c1565b905061171b81846131b3565b60408301525061175b565b6117308284613161565b608082015260006060820181905261174883856132c1565b905061175481846131b3565b6040830152505b6001600160a01b03858116600090815260056020818152604092839020855181549287015161ffff1990931690151561ff001916176101009215158302178155858401516001820155606086015160028201556080860151600382015560a0860151600482015560c08601519281019290925560e08501516006830180546001600160a01b03199081169287169290921790559085015160078301556101208501516008830155610140850151600990920180549091169190931617909155517f9eebf593e2999b320300f54bf9a3684f78f4c621194ff1d94bbf97de231a3b6090611850908f908f908f908c90879061338c565b60405180910390a150929b9a5050505050505050505050565b60066020526000908152604090208054600182015460028301546003840180546001600160a01b039485169594841694600160a01b90940460ff169391906118b090613257565b80601f01602080910402602001604051908101604052809291908181526020018280546118dc90613257565b80156119295780601f106118fe57610100808354040283529160200191611929565b820191906000526020600020905b81548152906001019060200180831161190c57829003601f168201915b5050505050905085565b6001600160a01b03811660009081526005602052604081205460ff16801561197957506001600160a01b038216600090815260056020526040902054610100900460ff16155b6119d85760405162461bcd60e51b815260206004820152602a60248201527f6e6f7420726561647920746f206772616475617465206f7220616c72656164796044820152690819dc98591d585d195960b21b606482015260840161053c565b6001600160a01b03828116600090815260056020818152604092839020805461010061ff00198216811780845586516101608101885260ff938416151581529082900490921615159382019390935260018083015482870152600283015460608301526003830154608083015260048084015460a08401529483015460c08301526006830154871660e08301526007830154938201939093526008820154610120820152600990910154909416610140850181905292516321c03a9760e01b8152918201526321c03a9790602401600060405180830381600087803b158015611ac057600080fd5b505af1158015611ad4573d6000803e3d6000fd5b50505050600080611ae485611eb0565b61014085015160085460405163a22cb46560e01b81529395509193506001600160a01b039081169263a22cb46592611b2392169060019060040161346d565b600060405180830381600087803b158015611b3d57600080fd5b505af1158015611b51573d6000803e3d6000fd5b50506000805460e08701519197506001600160a01b039081169116039150611b87905057611b808383836122d0565b9350611b95565b611b928383836124a6565b93505b6001600160a01b038416611bd75760405162461bcd60e51b81526020600482015260096024820152681b1c0819985a5b195960ba1b604482015260640161053c565b6001600160a01b03858116600090815260056020526040908190209051918616917fef0331b07d4c03673c89e5c43b02687583aca8fddab934113e3f052d3738bda491611c239161352c565b60405180910390a2505050919050565b6001546001600160a01b03163314611c5d5760405162461bcd60e51b815260040161053c90613234565b8060400151611c945760405162461bcd60e51b81526020600482015260036024820152623bba3360e91b604482015260640161053c565b6001600160a01b03808316600090815260066020908152604091829020845181549085166001600160a01b031990911617815590840151600182018054938601511515600160a01b026001600160a81b03199094169190941617919091179091556060820151600282015560808201518291906003820190611d169082613589565b50905050816001600160a01b03167f2c22db012d065378eeffaebe1908e1afcbdc3be6e6adc686b5239d4e1144e74f82604051611d539190613647565b60405180910390a25050565b6001600160a01b03811660008181526005602052604090819020805460ff1916600117815590519091907fe9699692476d33666a890b3e41ba09c4c0c1abf5266f070b65764b82033754c090611d5390849061352c565b6000611dc38260006128aa565b92915050565b60008080806064611ddb87605a6132aa565b611de59190613161565b90506000611df4600283613161565b90506000611e03600284613161565b905060006001600160a01b038816611e4057611e38600354620f4240611e2991906132aa565b8a85611e336103d2565b612940565b509050611e63565b611e5f600354620f4240611e5491906132aa565b8a85611e338c610da9565b5090505b60008111611ea15760405162461bcd60e51b815260206004820152600b60248201526a62616420616d6f756e747360a81b604482015260640161053c565b91955093509150509250925092565b6000611ee6604051806080016040528060006001600160a01b031681526020016060815260200160608152602001606081525090565b60408051600180825281830190925260009160208083019080368337505060408051600180825281830190925292935060009291506020808301908036833750506040805160018082528183019092529293506000929150602082015b6040805160808101825260008082526020808301829052928201526060808201528252600019909201910181611f4357505060408051608081019091526001600160a01b038816815290915060009060208101600181526000602080830191909152600480546040805182850281018501825282815294019392830182828015611fec57602002820191906000526020600020905b815481526020019060010190808311611fd8575b50505050508152509050808260008151811061200a5761200a6136a4565b60200260200101819052508684600081518110612029576120296136a4565b6001600160a01b03928316602091820292909201810191909152888216600090815260059091526040808220600901549051627eeac760e11b815292169162fdd58e9161207b913091906004016131e3565b602060405180830381865afa158015612098573d6000803e3d6000fd5b505050506040513d601f19601f820116820180604052508101906120bc9190613291565b836000815181106120cf576120cf6136a4565b602090810291909101015260075460405163f68790c760e01b81526000916001600160a01b03169063f68790c79061210b9086906004016136ba565b602060405180830381865afa158015612128573d6000803e3d6000fd5b505050506040513d601f19601f8201168201806040525081019061214c91906131c6565b9050600081156121ce5760075460405163f396455160e01b81526001600160a01b039091169063f3964551906121869087906004016136ba565b602060405180830381865afa1580156121a3573d6000803e3d6000fd5b505050506040513d601f19601f820116820180604052508101906121c79190613775565b9050612244565b6007546040516354af84a160e01b81526001600160a01b03909116906354af84a1906121fe9087906004016136ba565b6020604051808303816000875af115801561221d573d6000803e3d6000fd5b505050506040513d601f19601f820116820180604052508101906122419190613775565b90505b60006040518060800160405280836001600160a01b0316815260200188815260200160048054806020026020016040519081016040528092919081815260200182805480156122b257602002820191906000526020600020905b81548152602001906001019080831161229e575b50505091835250506020019690965250989397509295505050505050565b60e083015160085460a085015160405163095ea7b360e01b81526000936001600160a01b039081169363095ea7b3936123109392909116916004016131e3565b6020604051808303816000875af115801561232f573d6000803e3d6000fd5b505050506040513d601f19601f8201168201806040525081019061235391906131c6565b5060085460e085015160a0860151604051630b31753360e41b8152600093849384936001600160a01b039092169263b31753309261239e928a9290919081908890429060040161382e565b6060604051808303816000875af11580156123bd573d6000803e3d6000fd5b505050506040513d601f19601f820116820180604052508101906123e19190613875565b925092509250600081116124305760405162461bcd60e51b81526020600482015260166024820152751cdbdb595d1a1a5b99c8189859081a185c1c195b995960521b604482015260640161053c565b60095460e088015160405163e6a4390560e01b81526001600160a01b039092169163e6a4390591612465918a906004016138a3565b602060405180830381865afa158015612482573d6000803e3d6000fd5b505050506040513d601f19601f820116820180604052508101906110179190613775565b60e083015160085460405163a22cb46560e01b81526000926001600160a01b039081169263a22cb465926124e3929091169060019060040161346d565b600060405180830381600087803b1580156124fd57600080fd5b505af1158015612511573d6000803e3d6000fd5b5050505060e08401516001600160a01b039081166000908152600660209081526040808320815160a081018352815486168152600182015495861693810193909352600160a01b90940460ff16151590820152600283015460608201526003830180549293919260808401919061258790613257565b80601f01602080910402602001604051908101604052809291908181526020018280546125b390613257565b80156126005780601f106125d557610100808354040283529160200191612600565b820191906000526020600020905b8154815290600101906020018083116125e357829003601f168201915b505050919092525050506020810151604080516001808252818301909252929350909160009181602001602082028036833750506040805160018082528183019092529293506000929150602080830190803683370190505090508760e0015182600081518110612673576126736136a4565b60200260200101906001600160a01b031690816001600160a01b0316815250508760a00151816000815181106126ab576126ab6136a4565b60200260200101818152505060006040518060800160405280856001600160a01b03168152602001848152602001600480548060200260200160405190810160405280929190818152602001828054801561272557602002820191906000526020600020905b815481526020019060010190808311612711575b50505091835250506020018390526008546101408b0151604051627eeac760e11b81529293506001600160a01b03918216926350838b34928b92869291169062fdd58e9061277a9030906000906004016131e3565b602060405180830381865afa158015612797573d6000803e3d6000fd5b505050506040513d601f19601f820116820180604052508101906127bb9190613291565b8d60a001516000426040518763ffffffff1660e01b81526004016127e4969594939291906138bd565b6060604051808303816000875af1158015612803573d6000803e3d6000fd5b505050506040513d601f19601f820116820180604052508101906128279190613875565b505060095460405163e6a4390560e01b81526001600160a01b03909116915063e6a439059061285c9087908c906004016138a3565b602060405180830381865afa158015612879573d6000803e3d6000fd5b505050506040513d601f19601f8201168201806040525081019061289d9190613775565b9998505050505050505050565b6000814710156128d65760405163cf47918160e01b81524760048201526024810183905260440161053c565b763d602d80600a3d3981f3363d3d373d3d3d363d730000008360601b60e81c176000526e5af43d82803e903d91602b57fd5bf38360781b176020526037600983f090506001600160a01b038116611dc35760405163b06ebf3d60e01b815260040160405180910390fd5b600080808561295788670de0b6b3a76400006132aa565b6129619190613161565b90506000670de0b6b3a764000061297883886132aa565b6129829190613161565b905060008561299983670de0b6b3a76400006132aa565b6129a39190613161565b99929850919650505050505050565b604051806101600160405280600015158152602001600015158152602001600081526020016000815260200160008152602001600081526020016000815260200160006001600160a01b03168152602001600081526020016000815260200160006001600160a01b031681525090565b6001600160a01b0381168114612a3757600080fd5b50565b60008060408385031215612a4d57600080fd5b8235612a5881612a22565b946020939093013593505050565b600060208284031215612a7857600080fd5b5035919050565b600060208284031215612a9157600080fd5b8135612a9c81612a22565b9392505050565b6001600160a01b03169052565b6001600160a01b0391909116815260200190565b634e487b7160e01b600052604160045260246000fd5b60405160a081016001600160401b0381118282101715612afc57612afc612ac4565b60405290565b604051601f8201601f191681016001600160401b0381118282101715612b2a57612b2a612ac4565b604052919050565b600082601f830112612b4357600080fd5b81356001600160401b03811115612b5c57612b5c612ac4565b612b6f601f8201601f1916602001612b02565b818152846020838601011115612b8457600080fd5b816020850160208301376000918101602001919091529392505050565b600082601f830112612bb257600080fd5b81356001600160401b03811115612bcb57612bcb612ac4565b8060051b612bdb60208201612b02565b91825260208185018101929081019086841115612bf757600080fd5b6020860192505b83831015612c19578235825260209283019290910190612bfe565b9695505050505050565b600080600080600060a08688031215612c3b57600080fd5b85356001600160401b03811115612c5157600080fd5b612c5d88828901612b32565b95505060208601356001600160401b03811115612c7957600080fd5b612c8588828901612b32565b9450506040860135925060608601356001600160401b03811115612ca857600080fd5b612cb488828901612b32565b92505060808601356001600160401b03811115612cd057600080fd5b612cdc88828901612ba1565b9150509295509295909350565b600080600080600060a08688031215612d0157600080fd5b85356001600160401b03811115612d1757600080fd5b612d2388828901612b32565b95505060208601356001600160401b03811115612d3f57600080fd5b612d4b88828901612b32565b94505060408601356001600160401b03811115612d6757600080fd5b612d7388828901612b32565b9350506060860135612d8481612a22565b915060808601356001600160401b03811115612cd057600080fd5b60008083601f840112612db157600080fd5b5081356001600160401b03811115612dc857600080fd5b6020830191508360208260051b8501011115612de357600080fd5b9250929050565b60008083601f840112612dfc57600080fd5b5081356001600160401b03811115612e1357600080fd5b602083019150836020828501011115612de357600080fd5b60008060008060008060008060a0898b031215612e4757600080fd5b8835612e5281612a22565b97506020890135612e6281612a22565b965060408901356001600160401b03811115612e7d57600080fd5b612e898b828c01612d9f565b90975095505060608901356001600160401b03811115612ea857600080fd5b612eb48b828c01612d9f565b90955093505060808901356001600160401b03811115612ed357600080fd5b612edf8b828c01612dea565b999c989b5096995094979396929594505050565b6000815180845260005b81811015612f1957602081850181015186830182015201612efd565b506000602082860101526020601f19601f83011685010191505092915050565b6001600160a01b0386811682528516602082015283151560408201526060810183905260a06080820181905260009061101790830184612ef3565b8015158114612a3757600080fd5b60008060408385031215612f9557600080fd5b8235612fa081612a22565b915060208301356001600160401b03811115612fbb57600080fd5b830160a08186031215612fcd57600080fd5b612fd5612ada565b8135612fe081612a22565b81526020820135612ff081612a22565b6020820152604082013561300381612f74565b60408201526060828101359082015260808201356001600160401b0381111561302b57600080fd5b61303787828501612b32565b60808301525080925050509250929050565b60008060008060008060a0878903121561306257600080fd5b863561306d81612a22565b9550602087013561307d81612a22565b9450604087013593506060870135925060808701356001600160401b038111156130a657600080fd5b6130b289828a01612dea565b979a9699509497509295939492505050565b805169ffffffffffffffffffff811681146130de57600080fd5b919050565b600080600080600060a086880312156130fb57600080fd5b613104866130c4565b60208701516040880151606089015192975090955093509150613129608087016130c4565b90509295509295909350565b634e487b7160e01b600052601260045260246000fd5b634e487b7160e01b600052601160045260246000fd5b60008261317057613170613135565b500490565b602080825260119082015270185b1c9958591e4819dc98591d585d1959607a1b604082015260600190565b80820180821115611dc357611dc361314b565b81810381811115611dc357611dc361314b565b6000602082840312156131d857600080fd5b8151612a9c81612f74565b6001600160a01b03929092168252602082015260400190565b6001600160a01b0394851681529290931660208301526040820152606081019190915260a06080820181905260009082015260c00190565b6020808252600990820152683737ba1037bbb732b960b91b604082015260600190565b600181811c9082168061326b57607f821691505b60208210810361328b57634e487b7160e01b600052602260045260246000fd5b50919050565b6000602082840312156132a357600080fd5b5051919050565b8082028115828204841417611dc357611dc361314b565b6000826132d0576132d0613135565b500690565b600081518084526020840193506020830160005b828110156133075781518652602095860195909101906001016132e9565b5093949350505050565b6001600160a01b038881168252871660208201526040810186905260e06060820181905260009061334490830187612ef3565b82810360808401526133568187612ef3565b905082810360a084015261336a8186612ef3565b905082810360c084015261337e81856132d5565b9a9950505050505050505050565b6101e0815260006133a16101e0830188612ef3565b82810360208401526133b38188612ef3565b905082810360408401526133c78187612ef3565b9150508360608301526133df60808301845115159052565b602083015180151560a084015250604083015160c0830152606083015160e0830152608083015161010083015260a083015161012083015260c083015161014083015260e0830151613435610160840182612aa3565b506101008301516101808301526101208301516101a08301526101408301516134626101c0840182612aa3565b509695505050505050565b6001600160a01b039290921682521515602082015260400190565b805460ff8116151583526134a66020840160ff8360081c1615159052565b50600181015460408301526002810154606083015260038101546080830152600481015460a0830152600581015460c083015260068101546001600160a01b03166134f460e0840182612aa3565b506007810154610100830152600881015461012083015260098101546001600160a01b0316613527610140840182612aa3565b505050565b6101608101611dc38284613488565b601f82111561352757806000526020600020601f840160051c810160208510156135625750805b601f840160051c820191505b81811015613582576000815560010161356e565b5050505050565b81516001600160401b038111156135a2576135a2612ac4565b6135b6816135b08454613257565b8461353b565b6020601f8211600181146135ea57600083156135d25750848201515b600019600385901b1c1916600184901b178455613582565b600084815260208120601f198516915b8281101561361a57878501518255602094850194600190920191016135fa565b50848210156136385786840151600019600387901b60f8161c191681555b50505050600190811b01905550565b6020815260018060a01b03825116602082015260018060a01b036020830151166040820152604082015115156060820152606082015160808201526000608083015160a08084015261369c60c0840182612ef3565b949350505050565b634e487b7160e01b600052603260045260246000fd5b6000602082016020835280845180835260408501915060408160051b86010192506020860160005b8281101561376957868503603f19018452815180516001600160a01b0316865260208101516002811061372557634e487b7160e01b600052602160045260246000fd5b80602088015250604081015115156040870152606081015190506080606087015261375360808701826132d5565b95505060209384019391909101906001016136e2565b50929695505050505050565b60006020828403121561378757600080fd5b8151612a9c81612a22565b80516001600160a01b03168252602080820151608082850181905281519085018190526000929190910190829060a08601905b808310156137f05783516001600160a01b0316825260209384019360019390930192909101906137c5565b5060408501519250858103604087015261380a81846132d5565b925050506060830151848203606086015261382582826132d5565b95945050505050565b60c08152600061384160c0830189613792565b6001600160a01b03978816602084015260408301969096525060608101939093529316608082015260a00191909152919050565b60008060006060848603121561388a57600080fd5b5050815160208301516040909301519094929350919050565b6001600160a01b0392831681529116602082015260400190565b60c0815260006138d060c0830189613792565b82810360208401526138e28189613792565b6040840197909752505060608101939093526001600160a01b0391909116608083015260a0909101529291505056fea2646970667358221220bb7e7ef58564f6816e65252bf82760e1c25a0b96a9283ac6b53134f6341c6fe564736f6c634300081b0033",
  "linkReferences": {},
  "deployedLinkReferences": {}
}